:020000040800F2
:10000000983C0020B1010008D15800080D4A0008B2
:10001000CD5800085B0500083D8B0008000000007B
:10002000000000000000000000000000A15D0008CA
:10003000DF0B0008000000000D5D0008FD5D0008FA
:10004000CB010008CB010008CB010008CB01000860
:10005000CB010008CB010008CB010008CB01000850
:10006000CB010008CB010008CB010008CB01000840
:10007000CB010008CB0100086D0700087D070008D0
:10008000CB010008CB0100081D03000800000000A0
:10009000000000000000000000000000ED0B000860
:1000A000CB010008CB010008CB010008CB01000800
:1000B000CB010008CB010008CB010008CB010008F0
:1000C000CB010008CB010008CB010008CB010008E0
:1000D000CB010008CB010008CB01000800000000A4
:1000E000E10B0008CB010008CB0100080000000074
:1000F000000000000000000000000000CB0100082C
:1001000000000000CB010008CB010008CB01000873
:1001100000000000000000000000000000000000DF
:10012000CB010008CB0100088D070008CB010008B7
:10013000CB010008000000000000000000000000EB
:10014000000000000000000000000000D55800087A
:10015000CB010008CB010008CB010008CB0100084F
:10016000CB010008CB0100080000000000000000E7
:10017000000000000000000000000000000000007F
:1001800000000000CB01000800000000000000009B
:10019000CB010008CB010008DFF810D000F07CF89C
:1001A00000480047D1930008AFF30080983C00203E
:1001B0000648804706480047FEE7FEE7FEE7FEE701
:1001C000FEE7FEE7FEE7FEE7FEE7FEE7D95E000892
:1001D000990100082DE9F05F0546002092469B46F4
:1001E00088460646814640241BE02846414647464D
:1001F000224600F041F853465A46C01A914110D3A6
:1002000011461846224600F028F82D1A67EB01081F
:100210004F4622460120002100F01FF817EB00098D
:100220004E41201EA4F10104DFDC484631462A4637
:100230004346BDE8F09FD2B201E000F8012B491E11
:10024000FBD270470022F6E710B513460A46044673
:100250001946FFF7F0FF204610BD202A04DB203AA4
:1002600000FA02F1002070479140C2F1200320FA09
:1002700003F3194390407047202A04DB203A21FA07
:1002800002F00021704721FA02F3D040C2F12002AF
:100290009140084319467047064C074D06E0E06858
:1002A00040F0010394E8070098471034AC42F6D3BD
:1002B000FFF776FF609A0008809A000870B58D18E5
:1002C00010F8014B14F0030201D110F8012B231197
:1002D00006D110F8013B03E010F8016B01F8016B47
:1002E000521EF9D1ABB110F8012B04F00C048A1A9C
:1002F0000C2C03D0A2EB84129B1C08E010F8014BDD
:10030000A2EB0422F8E712F8014B01F8014B5B1E47
:10031000F9D5A942D4D3002070BD000010B5024821
:1003200000F060FD10BD00006422002055494A68BD
:1003300022F440324A604A6843681A434A600268BD
:10034000526822F4807203685A6002685368026936
:1003500043EA022203685A600268526822F040723F
:1003600003685A600268526883681A4303685A60D7
:100370000268926822F4006203689A6002689268D8
:10038000C3681A4303689A603F4B826A9A4218D046
:100390000268926822F0706203689A60026892684C
:1003A000836A1A4303689A600268926822F0405296
:1003B00003689A6002689268C36A1A4303689A6085
:1003C0000BE00268926822F0706203689A6002682B
:1003D000926822F0405203689A600268926822F0A4
:1003E000020203689A6002689368027E43EA42024E
:1003F00003689A602022125CA2B10268526842F43B
:10040000006203685A600268526822F4604203681E
:100410005A6002685368426A521E43EA42320368D5
:100420005A6005E00268526822F4006203685A606C
:100430000268D26A22F470020368DA620268D36A40
:10044000828B521E43EA02520368DA6202689268A3
:1004500022F4007203689A600268936890F8302072
:1004600043EA422203689A600268926822F480623A
:1004700003689A6002689368426943EA82220368CB
:100480009A607047002301400100000F70B50546D7
:100490000E461446012C06D0022C08D0032C03D0A3
:1004A000042C0ED108E00CE000F0C2FA09E031465D
:1004B000284600F0FFFA04E03146284600F0F4F93F
:1004C00000BF00BF002070BD014600207047002023
:1004D00070470346002070470146002070470146E0
:1004E0000020704770B504460D46D4F8BC62402128
:1004F00006F22560FFF7A6FEEA8806F2256120468F
:1005000006F0C0FB70BD70B506460C46D6F8BC526E
:10051000E08878B1E28805F22561304606F091FB6B
:10052000012085F82406A17985F86516A088010ABE
:1005300085F8661670BD0146002070470146002010
:10054000002205E0CBB218430002090A531C5AB23C
:10055000032AF7DBCBB21843704700BFFEE7000069
:100560000146104AB2F84820521C402A01D100200E
:1005700004E00C4AB2F84820521C90B2094AB2F882
:100580004A2082420CD0074AB2F84830921CD1541B
:10059000921EA2F8480000BF034A9269014B5A64B8
:1005A00070470000000400209025002010B504468C
:1005B000B4B10D48407868B100BF0C4880690A4961
:1005C000496C401A1E2802D208F0A8FB0BE008F084
:1005D0004FFB08E008F04CFB01200349487002E0A3
:1005E00000200149487010BD000400209025002023
:1005F0002DE9F04105460C469046042D15D007DC48
:100600007DB1012D0ED0022D0DD0032D24D10BE094
:10061000202D0BD0212D0AD0222D09D0232D1BD126
:1006200019E01AE019E018E017E016E015E014E010
:1006300000260027A07800F0010000B10126A07874
:1006400000F0020000B10127304605F08DFA38466F
:1006500005F008FB01E000E000BF00BF0020BDE89E
:10066000F08100207047000010B5002204490548C1
:1006700005F0F8FF0449034805F0E9FF002010BD2C
:10068000C42A0020B4270020842A002070B5044624
:100690000E46002503E0605DFFF762FF6D1C3068C9
:1006A000A842F8D82146044805F0D1FF024805F0D9
:1006B000B1FF002070BD0000B427002010B5034634
:1006C0000C460021084610BD2DE9F04104460D46B8
:1006D00000262946204600F017F806460948D0F8BB
:1006E000BC72D7F8140210B10120BDE8F0812A468F
:1006F0002146044805F0B6FF024806F04FF80646CA
:100700003046F2E7B427002070B505460E460024B7
:100710000249034809F06CF9204670BD042B002003
:10072000B427002070B504460025084800EB4400BB
:10073000457829462F2008F0C9FC2946402008F0BA
:10074000C5FC024810F8140070BD00000E9A0008A5
:1007500010B50446204608F0F3FB10BD10B508F0B4
:100760001FFD10BD10B508F06BFD10BD10B502489F
:1007700000F068FC10BD00009C23002010B502486A
:1007800000F060FC10BD0000FC23002010B5024802
:1007900000F058FC10BD0000D42400200146087869
:1007A00010381823B0FBF3F20848805CC865032AB0
:1007B00005D908686FF30900001D886503E0086823
:1007C0006FF309008865886D70470000409A000843
:1007D000014600208A6A8B69CBB932B1012A0DD05B
:1007E000022A03D0032A10D10EE000BFCB6A03F027
:1007F0008073B3F1807F00D1012007E0CB6AB3F1B1
:10080000C07F00D1012001E000E000BF34E08B692F
:10081000B3F5005F1AD132B1012A07D0022A03D002
:10082000032A11D10AE000BF01200EE0CB6A03F0D9
:100830008073B3F1807F00D1012006E0CB6AB3F171
:10084000C07F00D1012000E000BF15E032B1012AD5
:1008500005D0022A04D0032A0CD103E000BF00BF58
:10086000012008E0CB6A03F08073B3F1807F00D1F0
:10087000012000E000BF00BF704730B50468246865
:1008800024F4802405682C60046863608468402C2C
:1008900004D10468A2600468E16003E00468A16018
:1008A0000468E26030BD000030B5024613464908D6
:1008B000204890F8000CA0B91E48B0F8040C00F5D0
:1008C000C0701C4CA4F8020C2046B0F8020CB0F525
:1008D000407F02DB0020A4F8020C0120154C84F8B4
:1008E000000C002023E0134CB4F8024C114D35F8F5
:1008F000144023F810402C46B4F8025C04F5C064A0
:1009000034F81540A5B2441C23F81450094CB4F82F
:10091000024C641C074DA5F8024C2C46B4F8024C5E
:10092000B4F5407F02DB0024A5F8024C801C88420D
:10093000D9D330BD52160020F0B504460E4600272C
:10094000344890F8000C88B13248B0F8047CB0F814
:10095000020C3049B1F8041C884202DD07F54070F2
:1009600087B22C48B0F8020C381A87B2B7F5107F5E
:1009700012D92848B0F8040C38B92648B0F8040C4D
:1009800000F540702349A1F8040C2248B0F8040C8B
:10099000401E2049A1F8040CC02F13D21D48B0F806
:1009A000040C401C1B49A1F8040C0846B0F8040CC8
:1009B000B0F5407F06DB0846B0F8040CA0F54070A7
:1009C000A1F8040C002507E06A1C34F8121034F872
:1009D000150008F097FCAD1CB542F5D3721E34F833
:1009E0001210B21E34F8120008F08CFC0948B0F85E
:1009F000040C38B90748B0F8040C00F540700549FC
:100A0000A1F8040C0348B0F8040C401E0149A1F8F9
:100A1000040CF0BD5216002010B508F0BBFC0348D2
:100A2000FFF796FE1420FFF77DFE10BD0077010052
:100A3000002008E00021064A22F810100022054993
:100A400021F81020401CB0F5407FF3D37047000020
:100A50004C0A00204C10002010B50246002024E073
:100A6000134BB3F8023C124C34F8133022F8103018
:100A70002346B3F8024C03F5C06333F814309CB23C
:100A8000431C22F813400A4BB3F8023C5B1C084C91
:100A9000A4F8023C2346B3F8023CB3F5407F02DBE6
:100AA0000023A4F8023C831C98B28842D8DB10BD16
:100AB0004C0A00202DE9F04180460C464746640868
:100AC000414890F8000CC0B93F48B0F8020C00F55E
:100AD000C0703D49A1F8040C0846B0F8040CB0F50C
:100AE000407F06DB0846B0F8040CA0F54070A1F882
:100AF000040C0120344981F8000C3348B0F8045C40
:100B0000B0F8020C3049B1F8041C884202DD05F54A
:100B1000407085B22C48B0F8020C281A85B2B5F5A1
:100B2000107F12D92848B0F8040C38B92648B0F81C
:100B3000040C00F540702449A1F8040C2248B0F8D8
:100B4000040C401E2049A1F8040CC02D13D21E48ED
:100B5000B0F8040C401C1C49A1F8040C0846B0F87D
:100B6000040CB0F5407F06DB0846B0F8040CA0F595
:100B70004070A1F8040C002607E0721C37F8121030
:100B800037F8160008F0E2FBB61CA642F5D3621E49
:100B900037F81210A21E37F8120008F0D7FB0A48E7
:100BA000B0F8040C38B90848B0F8040C00F54070EF
:100BB0000549A1F8040C0448B0F8040C401E024991
:100BC000A1F8040CBDE8F0814C0A0020704710B574
:100BD000FFF7C4FD10BD10B5FFF7C4FD10BD704791
:100BE00010B54FF4806000F05FFC10BD10B54FF4FD
:100BF000007000F059FC10BD72B600BE00E000BFEE
:100C0000FDE7000070B50A480468001D0568001D76
:100C10000668344454B108220649204604F0E1FB3A
:100C2000042204491031284604F0DBFB70BD0000AB
:100C3000107AFF1F5A0000207047000038B50246A6
:100C40000020009000BF92F83C00012801D1022052
:100C500038BD012082F83C0000BF0868092816D979
:100C60001068C0680C780A3C04EB44050724AC40CB
:100C7000A0431468E0600C780A3C04EB44048868E4
:100C8000A0401468E46820431468E06013E0106832
:100C900000690C7804EB44050724AC40A0431468B9
:100CA00020610C7804EB44048868A040146824692F
:100CB0002043146820614868072817D21068406BE9
:100CC0000C79641E04EB84051F24AC40A043146817
:100CD0006063088880B20C79641E04EB8404A04031
:100CE0001468646B20431468606331E048680D2821
:100CF00017D21068006B0C79E41F04EB84051F24E5
:100D0000AC40A04314682063088880B20C79E41FCB
:100D100004EB8404A0401468246B2043146820630F
:100D200016E01068C06A0C790D3C04EB84051F24A2
:100D3000AC40A0431468E062088880B20C790D3C96
:100D400004EB8404A0401468E46A20431468E06261
:100D50001E4B1F4C1068A0420AD10868122807D108
:100D6000586820F400005860586840F480005860CB
:100D7000174C1068A04222D1164C0868A04202D03D
:100D8000086811281BD1586820F480005860586802
:100D900040F4000058600F4C0868A0420FD10E4884
:100DA00000680E4CB0FBF4F000EB800040000090B7
:100DB00002E00098401E009000980028F9D100BF82
:100DC000002082F83C0000BF00BF41E70023014043
:100DD0000020014012000010FC03002040420F00E0
:100DE000704770472DE9F041044600250026206831
:100DF00007682068D0F8048007F0020508F0200694
:100E000095B38EB3206C00F0100018B9206C40F43C
:100E1000007020642068806800F04050E8B9207EAF
:100E2000D8B92068C06A00F4700020B120688068DA
:100E300000F4806088B92068406820F020002168B4
:100E40004860206C20F480702064206C00F4805096
:100E500018B9206C40F0010020642046FFF7C0FF65
:100E60006FF012002168086007F0040508F08006A2
:100E7000E5B3DEB3206C00F0100018B9206C40F42C
:100E8000005020642068806800F4401038BB20685F
:100E9000806B00F4401020B12068806800F480600E
:100EA000E8B92068406800F48060C0B920688068B4
:100EB00000F0405098B9207E88B92068406820F042
:100EC000800021684860206C20F480502064206CF1
:100ED00000F4807018B9206C40F0010020642046B6
:100EE000FFF7AAFE6FF00C002168086007F001050B
:100EF00008F0400685B17EB12068006800F001006E
:100F000050B1206C40F480302064204600F050F84E
:100F10006FF001002168086007F0200508F0806686
:100F20007DB176B1606C40F0020060646FF020002B
:100F3000216808602046FFF754FF6FF02000216809
:100F40000860BDE8F081000070B5044600250CB9CA
:100F5000012070BD1549A06A884200D000BF206CF6
:100F600030B9204600F026F80020606484F83C0088
:100F7000206C00F0100088B9206C20F4885040F0FC
:100F8000020020642046FFF7D1F900206064206C45
:100F900020F0020040F00100206400E0012500BFC5
:100FA000002084F83C0000BF2846D2E70100000F73
:100FB0007047000010B586B00446142101A8FFF761
:100FC00041F91D492068884233D100BF00200090BC
:100FD0001A48006840F480701849086008460068A4
:100FE00000F48070009000BF00BF00BF00200090A0
:100FF00012481438006840F00100104914390860A4
:101000000846006800F00100009000BF00BF042007
:101010000190032002900020039001A9084800F0ED
:1010200051FA00221146122001F05EFD122001F05B
:1010300047FD06B010BD00000020014044380240CA
:1010400000000240F8B50446002000908C4800687B
:101050004FF41651B0FBF1F7A56D2E6894F85C10B3
:1010600008208840304098B12068006800F00400F3
:1010700070B12068006820F004002168086094F8CE
:101080005C1008208840A860606D40F00100606539
:1010900094F85C1001208840304068B120684069B5
:1010A00000F0800040B194F85C1001208840A860F6
:1010B000606D40F00200606594F85C100420884088
:1010C000304068B12068006800F0020040B194F838
:1010D0005C1004208840A860606D40F004006065EA
:1010E00094F85C1010208840304078B32068006885
:1010F00000F0080050B394F85C1010208840A860FD
:101100002068006800F4802080B12068006800F446
:10111000002028B9206CC8B12046216C884715E012
:10112000A06C98B12046A16C88470FE02068006849
:1011300000F4807028B92068006820F00800216859
:101140000860206C10B12046216C884794F85C1030
:10115000202088403040002865D02068006800F0DA
:10116000100000285FD094F85C1020208840A86010
:1011700094F83500052828D12068006820F0160072
:10118000216808602068406920F08000216848617B
:10119000206C08B9A06C28B12068006820F0080015
:1011A0002168086094F85C103F208840A860012006
:1011B00084F8350000BF002084F8340000BF206DA3
:1011C00010B12046216D8847F8BD2068006800F402
:1011D000802080B12068006800F4002028B9606C8D
:1011E00010B12046616C88471DE0E06BD8B1204605
:1011F000E16B884717E02068006800F4807068B9E8
:101200002068006820F0100021680860012084F840
:10121000350000BF002084F8340000BFE06B10B13F
:101220002046E16B8847606D38B3606D00F00100C7
:10123000F0B1052084F835002068006820F0010036
:101240002168086000BF0098401C0090B84200D997
:1012500005E02068006800F001000028F3D100BF1D
:10126000012084F8350000BF002084F8340000BF5E
:10127000E06C10B12046E16C884700BFA4E7000095
:10128000FC0300202DE9F0410446002500F00CFA93
:10129000074614B90120BDE8F081606A00B100BFC3
:1012A000022084F8350000BF002084F8340000BF1D
:1012B0002068006820F00100216808600AE000F062
:1012C000F3F9C01B052805D920206065032084F8A8
:1012D0003500E0E72068006800F001000028EED14A
:1012E0002068056821480540D4E901010843E16808
:1012F00008432169084361690843A1690843E1691A
:101300000843216A08430543606A042803D1D4E9ED
:101310000B0108430543206805602068456925F0F6
:101320000705606A0543606A04280DD1A06A054379
:10133000E06A48B12046FFF74BFA28B140206065CB
:10134000012084F83500A6E7206845612046FFF7B4
:1013500025FA064694F85C103F208840B0600020D3
:101360006065012084F83500002094E73F8010F08C
:101370002DE9F04704460D4616461F464FF000087B
:10138000D4F8589000BF94F83400012802D102200C
:10139000BDE8F087012084F8340000BF94F83500E0
:1013A000012825D1022084F83500002060653B46E5
:1013B000324629462046FFF760FA94F85C103F2039
:1013C0008840C9F808002068006840F016002168CD
:1013D0000860206C28B12068006840F0080021688F
:1013E00008602068006840F001002168086006E09D
:1013F00000BF002084F8340000BF4FF002084046D0
:10140000C6E7000070B5044600F04EF906462546D2
:10141000681C10B104480078054400BF00F044F98E
:10142000801BA842FAD370BDF803002010B5044613
:10143000B4F5007F03D0B4F5806F2CD115E04FF4E4
:101440000071164800F022F908B9012000E00020E0
:10145000134948710846407910B108F0AFF803E02D
:10146000104880690E49886015E04FF480610B4890
:1014700000F00CF908B9012000E00020084988714B
:101480000846807910B108F099F803E005488069B2
:101490000349886000BF00BF10BD0000000002408B
:1014A000582200209025002010B50446044800680A
:1014B000204020B1024804602046FFF7B7FF10BD6E
:1014C000143C0140F8B502460B46002500240020DC
:1014D0000021C7E0012606FA01F51E6806EA0504A8
:1014E000AC4274D11E7906F00306012E04D01E7999
:1014F00006F00306022E13D190684F000326BE406B
:10150000B0434F00DE68BE40304390605068012613
:101510008E40B0431E79C6F300168E4030435060B3
:101520001E7906F00306032E09D0D0684F0003266B
:10153000BE40B0434F009E68BE403043D0601E792D
:1015400006F00306022E13D1CF0802F1200656F84A
:1015500027004E07F70E0F26BE40B0434F07FF0E81
:101560001E69BE403043CF0802F1200646F827002E
:1015700010684F000326BE40B0431E7906F00306F4
:101580004F00BE40304310605E6806F44036002EC7
:1015900067D000BF00260096344E366846F4804679
:1015A000324F3E603E46366806F48046009600BFE5
:1015B00000BF2F4E8F0856F827008E07370F0F26D3
:1015C000BE40B0432B4EB24202D1002615E048E0A7
:1015D000294EB24201D101260FE0284EB24201D17C
:1015E00002260AE0264EB24201D1032605E0254E2E
:1015F000B24201D1042600E007268F073F0FBE400C
:1016000030431B4E8F0846F827001F4E3068A0431A
:101610005E6806F4801606B120431B4E3060361D0E
:101620003068A0435E6806F4001606B12043164EEB
:10163000361D3060144E361F3068A0435E6806F4D5
:10164000003606B12043104E361F3060361F30681A
:10165000A0435E6806F4803606B120430A4E083E79
:101660003060491C1029FFF435AFF8BD4438024002
:101670000838014000000240000402400008024017
:10168000000C024000100240083C01400246136971
:101690000B400BB1012000E0002070470AB18161CE
:1016A00001E00B0483617047014800687047000047
:1016B000F00300200146086C7047000070B5044636
:1016C0000CB9012070BD94F83D0028B9002084F8C1
:1016D0003C00204600F0A6FC242084F83D00206851
:1016E000006820F00100216808602068006840F46C
:1016F0000040216808602068006820F400402168EC
:10170000086002F01DFB05465C496068884206D807
:101710005B48854201D2012007E0002005E05948DE
:10172000854201D2012000E00020012800D1C9E754
:101730005548B5FBF0F62068406820F03F00304384
:10174000216848604D496068884201D8701C07E0F4
:101750004FF4967070434FF47A71B0FBF1F0401C77
:101760002168096A21F03F01084321680862434962
:101770006068884214D8681E61684900B0FBF1F0C7
:10178000401CC0F30B00042801D204203DE0681E79
:1017900061684900B0FBF1F0401CC0F30B0034E07D
:1017A000A06838B9681E616801EB4101B0FBF1F037
:1017B000401C0AE0681E616801EBC10202EB0111E6
:1017C000B0FBF1F0401C40F48040C0F30B0008B9BE
:1017D00001201AE0A06848B9681E616801EB410168
:1017E000B0FBF1F0401CC0F30B000CE0681E616818
:1017F00001EBC10202EB0111B0FBF1F0401CC0F3A0
:101800000B0040F4804040F400402168C9694CF668
:10181000FF72914308432168C861D4E90701084376
:101820002168096821F0C001084321680860D4E9F3
:10183000031008432168896848F2FF329143084346
:1018400021688860D4E9050108432168C96821F04E
:10185000FF0108432168C8602068006840F001006B
:101860002168086000202064202084F83D000020CA
:10187000206384F83E0000BF24E70000A08601003A
:1018800080841E0000093D0040420F002DE9F84F02
:1018900004460F4690461E46FFF706FF05464FF0EA
:1018A000000994F83D0020287ED1192301226349C4
:1018B0002046009503F06BFA10B10220BDE8F88FC6
:1018C00000BF94F83C00012801D10220F6E7012076
:1018D00084F83C0000BF2068006800F0010028B9CF
:1018E0002068006840F001002168086020680068F6
:1018F00020F4006021680860242084F83D00002066
:1019000020644F48E06200BF2068006840F48070A7
:1019100021680860334600224FF0011120460095EF
:1019200003F035FA58B12068006800F48070B0F513
:10193000807F02D14FF4007020640320BEE707F0DF
:10194000FE0021680861FFF7AFFE05462068406988
:10195000C0F3400A20684069C0F3802B10E0FFF715
:10196000A3FE401BB04200D816B9A02084F83D0069
:1019700020684069C0F3400A20684069C0F3802BAA
:1019800094F83D00A02805D0BAF1000F02D1BBF1B8
:10199000000FE4D0202084F83D0020684069C0F3A7
:1019A000400028B3206800E045E0006840F4007083
:1019B0002168086000BF0020009020684069009006
:1019C00020688069009000BF00BF192301221B49D5
:1019D0002046009503F0DBF908B101206EE72020D6
:1019E00084F83D0000BF002084F83C0000BF65E79C
:1019F0002068006840F40070216808606FF480601F
:101A000021684861192301220C492046009503F002
:101A1000BEF908B1012051E709F10109C145FFF400
:101A200073AF202084F83D0000BF002084F83C0004
:101A300000BF012042E7022040E700000200100042
:101A40000000FFFF2DE9F8430446894617469846F3
:101A5000089EFFF729FE054694F83D0020287DD119
:101A600019230122B7492046009503F090F910B1DF
:101A70000220BDE8F88300BF94F83C00012801D1A2
:101A80000220F6E7012084F83C0000BF20680068CF
:101A900000F0010028B92068006840F001002168CA
:101AA00008602068006820F4006021680860222037
:101AB00084F83D00102084F83E0000202064676216
:101AC000A4F82A80608D20859F48E0622B4632462C
:101AD0004946204602F0BCFF08B10120C9E7208D2D
:101AE00088B900BF002000902068406900902068FD
:101AF0008069009000BF00BF2068006840F400705B
:101B00002168086047E0208D012817D1206800680F
:101B100020F480602168086000BF002000902068E9
:101B20004069009020688069009000BF00BF206875
:101B3000006840F40070216808602CE0208D0228C5
:101B400018D12068006820F480602168086020684F
:101B5000006840F400602168086000E0EFE000BF2A
:101B60000020009020684069009020688069009003
:101B700000BF10E02068006840F4806021680860C1
:101B800000BF0020009020684069009020688069B4
:101B9000009000BF00BFC3E0208D03287ED8208DB9
:101BA000012815D12A463146204603F0CCF908B168
:101BB00001205EE720680069616A0870606A401C65
:101BC0006062208D401E2085608D401E6085A7E0EC
:101BD000208D02282AD1334600225C4920460095F8
:101BE00003F0D5F808B1012043E72068006840F40D
:101BF00000702168086020680069616A0870606A86
:101C0000401C6062208D401E2085608D401E6085D6
:101C100020680069616A0870606A401C6062208DFB
:101C2000401E2085608D401E608579E0334600228D
:101C300046492046009503F0AAF808B1012018E7AC
:101C40002068006820F480602168086020680069CE
:101C5000616A0870606A401C6062208D401E2085A9
:101C6000608D401E6085334600223849204600952D
:101C700003F08DF808B10120FBE62068006840F40D
:101C800000702168086020680069616A0870606AF5
:101C9000401C6062208D401E208500E010E0608DB9
:101CA000401E608520680069616A0870606A401C97
:101CB0006062208D401E2085608D401E60852FE073
:101CC0002A463146204603F03EF908B10120D0E60D
:101CD00020680069616A0870606A401C6062208D3B
:101CE000401E2085608D401E608520684069C0F3DD
:101CF0008000A8B1208D032805D12068006820F459
:101D000080602168086020680069616A0870606A04
:101D1000401C6062208D401E2085608D401E6085C5
:101D2000208D00287FF438AF202084F83D0000206B
:101D300084F83E0000BF84F83C0000BF99E6022012
:101D400097E60000020010000000FFFF0400010001
:101D50002DE9F8430446894616461F46DDF82080E3
:101D6000FFF7A2FC054694F83D0020287ED11923F8
:101D7000012251492046009503F009F810B10220D4
:101D8000BDE8F88300BF94F83C00012801D102208F
:101D9000F6E7012084F83C0000BF2068006800F0EE
:101DA000010028B92068006840F00100216808603F
:101DB0002068006820F4006021680860212084F811
:101DC0003D00102084F83E00002020646662678594
:101DD000608D20853948E0622B46424649462046C0
:101DE00002F0D2FE08B10120CAE700BF0020009037
:101DF00020684069009020688069009000BF00BFA3
:101E000044E02A464146204603F0E2F850B1206CF7
:101E1000042805D12068006840F40070216808603B
:101E20000120ADE7606A007821680861606A401CA3
:101E30006062608D401E6085208D401E2085206878
:101E40004069C0F3800070B1208D60B1606A007895
:101E500021680861606A401C6062608D401E608578
:101E6000208D401E20852A46414600E022E0204683
:101E700002F05AFF50B1206C042805D12068006898
:101E800040F4007021680860012079E7208D002867
:101E9000B7D12068006840F40070216808602020F5
:101EA00084F83D00002084F83E0000BF84F83C0028
:101EB00000BF65E7022063E7020010000000FFFF9B
:101EC0002DE9FC5F04460F4690469946DDE90CABD0
:101ED0000E9EFFF7E9FB054694F83D0020287DD1D2
:101EE000192301224D492046009502F050FF10B100
:101EF0000220BDE8FC9F00BF94F83C00012801D1FE
:101F00000220F6E7012084F83C0000BF206800684A
:101F100000F0010028B92068006840F00100216845
:101F200008602068006820F40060216808602120B3
:101F300084F83D00402084F83E0000202064C4F86E
:101F400024A0A4F82AB0608D20853548E0624B4675
:101F5000424639462046CDE9006502F075FE08B1DB
:101F60000120C6E731E02A463146204603F030F82A
:101F700050B1206C042805D12068006840F400703E
:101F8000216808600120B4E7606A00782168086170
:101F9000606A401C6062208D401E2085608D401E5E
:101FA000608520684069C0F3800070B1208D60B109
:101FB000606A007821680861606A401C6062208D58
:101FC000401E2085608D401E6085208D0028CAD16E
:101FD0002A463146204602F0A7FE00E01CE050B140
:101FE000206C042805D12068006840F40070216846
:101FF000086001207DE72068006840F400702168D7
:102000000860202084F83D00002084F83E0000BFD6
:1020100084F83C0000BF6CE702206AE70200100071
:102020000000FFFF10B586B00446142101A8FEF79A
:1020300009F944492068884230D100BF002000904F
:102040004148006840F002003F49086008460068C7
:1020500000F00200009000BF00BF4FF440700190FC
:102060001220029000200390032004900420059089
:1020700001A93648FFF726FA00BF00200090324839
:102080001030006840F400102F49103108600846F5
:10209000006800F40010009000BF50E02C49206858
:1020A00088424CD100BF002000902748006840F0D3
:1020B0000100254908600846006800F00100009012
:1020C00000BF00BF00BF002000900846006840F03D
:1020D000020008600846006800F00200009000BF9F
:1020E00000BF881501901220029000200390032069
:1020F00004900420059001A91648FFF7E3F9102089
:1021000001901220029000200390032004900920E7
:10211000059001A90D48FFF7D5F900BF00200090F8
:1021200009481030006840F4000007491031086089
:102130000846006800F40000009000BF00BF06B031
:1021400010BD00000054004030380240000402403E
:10215000005C00400000024010B586B004462068D4
:10216000806805908B492068884201D18A4801E047
:102170004FF04020806804902068406803908549B3
:102180002068884201D1844801E04FF04020406837
:1021900002906068B0F5007F02D0606800286FD1BF
:1021A000059800F00200022806D1039800F0800094
:1021B00010B1204602F092FF049800F0010030B107
:1021C000029800F0400010B1204602F051FF049840
:1021D00000F04000402832D1029800F0200070B397
:1021E0006C492068884201D16B4801E04FF04020E3
:1021F000406820F06000674A2168914201D1664939
:1022000001E04FF0402148602068406820F0A000C5
:102210002168486000BF002001902068C0680190DC
:1022200020688068019000BF00BF012084F8410051
:10223000606C40F002006064204600F00BFA0598E4
:1022400000F00800082831D1039800F02000002891
:102250002CD02068406820F0A000216848604D49DB
:102260002068884201D14C4801E04FF0402040688E
:1022700020F06000474A2168914202D1464902E0BD
:1022800015E04FF04021486000BF00200190206819
:102290008068019000BF00BF012084F84100606C9D
:1022A00040F004006064204600F0D4F970E0049827
:1022B00000F00200022806D1029800F0800010B160
:1022C000204602F027FF059800F0010030B1039886
:1022D00000F0400010B1204602F0ADFE059800F07D
:1022E0004000402827D1039800F0200018B3206850
:1022F000406820F0600021684860264920688842D4
:1023000001D1254801E04FF04020406820F0A000B6
:10231000204A2168914201D11F4901E04FF040213C
:102320004860012084F84100606C40F00200606465
:10233000204600F08FF9049800F00800082827D103
:10234000029800F0200018B312492068884201D199
:10235000114801E04FF04020406820F0A0000D4AF5
:102360002168914201D10C4901E04FF040214860C1
:102370002068406820F0600021684860012084F8EF
:102380004100606C40F004006064204600F062F997
:1023900006B010BD00380040003400402DE9FF4376
:1023A00081B004461D4600260027B04694F841003F
:1023B000012802D04FF002081BE1029810B10398E7
:1023C00000B11DB9012005B0BDE8F08300BF94F84D
:1023D0004000012801D10220F5E7012084F84000E7
:1023E00000BF029860620398E0622068C06900F054
:1023F0000707032F01D0052F14D14FF6FF7000EA15
:10240000450020854FF6FF7000EA450060854FF6D5
:10241000FF7000EA450020864FF6FF7000EA450095
:10242000608603E0258565852586658600206064D5
:10243000052084F841007248E16B08647148E16B43
:10244000C8637148E16BC8640020A16B0864A16B8C
:10245000C8636D48A16BC8642068C06900F4407708
:10246000B7F5007F01D0002F58D103AE238E32681C
:10247000DFF89891D4F800C0CC4502D1DFF890C1C4
:1024800001E04FF0402C0CF10C01E06BFEF770FF07
:102490005E492068884201D15D4801E04FF040204C
:1024A000406840F00100594A2168914201D15849E1
:1024B00001E04FF04021486002AE238DD4F800C007
:1024C0000CF10C023168A06BFEF752FF20684068E7
:1024D00040F00200216848602068C06900F4806014
:1024E000B0F5806F19D049492068884201D1484829
:1024F00001E04FF04020C06940F48060434A216809
:10250000914201D1424901E04FF04021C861206869
:10251000C06940F480602168C86169E02068C069D2
:1025200000F44070B0F5407F0AD100BF0020009059
:102530002068C068009020688068009000BF00BFDD
:1025400002AE238DDFF8C490D4F800C0CC4502D190
:10255000DFF8BCC001E04FF0402C0CF10C023168F8
:10256000A06BFEF705FF29492068884201D1284861
:1025700001E04FF04020406840F00200234A21680B
:10258000914201D1224901E04FF04021486003AE61
:10259000238E3268D4F800C00CF10C01E06BFEF71A
:1025A000E7FE2068406840F001002168486020682C
:1025B000C06900F48060B0F5806F19D013492068BD
:1025C000884201D1124801E04FF04020C06940F438
:1025D00080600E4A2168914201D10D4901E04FF01F
:1025E0004021C8612068C06940F480602168C861EA
:1025F00000BF00BF002084F8400000BF4046E2E674
:102600008D520008815100082D520008003800400A
:102610000034004010B50446C0210448FEF71CFAFF
:10262000C0210348FEF788F910BD0000CC08002047
:10263000CC05002010B50446C0210448FEF70CFA72
:10264000C0210348FEF778F910BD00004C070020B8
:102650004C040020704700002DE9F047044614B9EF
:102660000120BDE8F08794F8410038B9002084F8D3
:10267000400067486063204600F0D2F8022084F8EA
:1026800041002068C06940F6BF7188432168C86175
:10269000022021680862606902283CD0E06808B91D
:1026A000102600E02026A068202800D8760001200F
:1026B00001F058F980462069B0F5007F17D1E06835
:1026C00050B1B000B8FBF0F000EB80004100606951
:1026D000B1FBF0F0451D13E0F000B8FBF0F000EBAB
:1026E000800041006069B1FBF0F0451D08E0B8FBD7
:1026F000F6F000EB800041006069B1FBF0F0451D91
:102700000A20B5FBF0F505F00109A5EB0900470823
:102710004FEA092902E002274FF00009022F01D3F6
:10272000FF2F05D9606C40F010006064012098E72D
:10273000206940EA0900384321680862606840F473
:102740000060A1680843E1680843A1690843216863
:10275000C96940F6BF72914308432168C861206A85
:1027600001284DD12B4860632B492068884201D154
:102770002A4801E04FF04020C06940F6BF7188430D
:10278000254A2168914201D1244901E04FF04021BE
:10279000C8610220204A2168914201D11F4901E00D
:1027A0004FF0402108621C492068884201D11B4833
:1027B00001E04FF04020C0691FFA80FA6068B0F570
:1027C000007F01D0606810B94FF4807500E00025EB
:1027D000A8B240F40060218989B20843A18989B276
:1027E0000843218B89B2084340EA0A0A0A49206853
:1027F000884201D1094801E04FF04020C0F81CA0F8
:1028000000206064012084F84100002029E70000D6
:102810009B52000859210008003800400034004055
:1028200010B58CB00446142107A8FDF70BFD182144
:1028300001A8FDF707FD6049206888427ED101208C
:10284000019080210391102002900221049101A89F
:1028500001F0D2F808B1FEF7CFF900BF00200090D8
:102860005648006840F480405449086008460068B3
:1028700000F48040009000BF00BF00BF0020009027
:102880004E481038006840F001004C49103908608B
:102890000846006800F00100009000BF00BF00BFC4
:1028A000002000900846006840F0020008600846DA
:1028B000006800F00200009000BF00BF40200790B9
:1028C00002200890002009900A9006200B9007A98A
:1028D0003B48FEF7F7FD4FF4304007900220089088
:1028E000002009900A9005200B9007A93548FEF7B3
:1028F000E9FD4FF4804007900220089000200990E5
:102900000A9006200B9007A92E48FEF7DBFD2E4803
:102910002E4908604FF0C060486000212B4881605C
:10292000C1604FF4806101614900416189008161AA
:102930004911C16100210162042100E03AE04162D5
:10294000032181624FF08071C16200210163FEF7B3
:1029500099FC08B1FEF750F900BF1C48E06384639E
:1029600000BF194818301A4908600020486040210B
:10297000174881600021C1604FF480610161490006
:102980004161890081614911C16100210162042115
:102990004162032181624FF08071C16200210163B5
:1029A000FEF770FC08B1FEF727F900BF0848A063E6
:1029B000846300BF0CB010BD0038004040380240B6
:1029C0000000024000040240586002409C230020A6
:1029D000FC230020704770470348006803490978CA
:1029E0000844014908607047F0030020F803002004
:1029F00010B50D48006840F400700B4908600846A7
:102A0000006840F4806008600846006840F4807008
:102A10000860032000F0A6F80F2000F007F800F08F
:102A20002BF8002010BD0000003C024070B50446A9
:102A30000E4800784FF47A71B1FBF0F00C49096848
:102A4000B1FBF0F5284601F077FE08B1012070BD1A
:102A5000102C07D200222146501E00F045F80548F0
:102A6000046001E00120F2E70020F0E7F803002015
:102A7000FC030020F403002008B500BF00200090F4
:102A80000E48006840F480400C4908600846006821
:102A900000F48040009000BF00BF00BF0020009005
:102AA000081F006840F08050091F08600846006851
:102AB00000F08050009000BF00BF08BD44380240C5
:102AC0000146084600280DDB00BF00BF00F01F03D1
:102AD00001229A4043099B0003F1E023C3F800213F
:102AE00000BF00BF00BF70472DE9F05F80460D4674
:102AF0001646002706F090F8074639462A46334620
:102B000001F00700C0F1070ABAF1040F02D94FF033
:102B1000040A01E0C0F1070AD14600F1040ABAF143
:102B2000070F02D24FF0000A01E0A0F1030AD446D9
:102B30004FF0010A0AFA09FAAAF1010A0AEA020A9E
:102B40000AFA0CFA4FF0010B0BFA0CFBABF1010B7C
:102B50000BEA030B4AEA0B042146404606F064F8F0
:102B6000BDE8F09F00BF00F00702064B19684FF662
:102B7000FF031940044B0B4343EA0221014B196048
:102B800000BF70470CED00E00000FA0570470246F8
:102B90001068416200207047F0B50346154618687A
:102BA000446A21B944EA05401E68B06219E0186819
:102BB000806A04EB1044002208E0186800F5827077
:102BC00050F8220004EB1044501CC2B2481E904240
:102BD000F3D844EA0547186800F582704E1E40F8A5
:102BE00026700020F0BD10B50446D4F8E00404F0CF
:102BF0008FFB10BD70B504460D4605EBC50304F10F
:102C0000140101EB8301CA682946D4F8E00404F0FA
:102C1000C7FA70BD70B504460D4605EBC50304F553
:102C2000157101EB8301CA682946D4F8E00404F069
:102C300028FB70BD10B50446D4F8E00404F06BFB2B
:102C400010BD2DE9F04104460D4605F080008028B6
:102C500008D105F00F0000EBC00104F1140000EBF7
:102C6000810607E005F00F0000EBC00104F51570C8
:102C700000EB81063146206805F022FD0746384604
:102C8000BDE8F08170B504460E4606F0800080284D
:102C90000AD106F00F0000EBC00104F1140000EBB4
:102CA00081050120687009E006F00F0000EBC0010B
:102CB00004F5157000EB81050020687006F00F0028
:102CC000287000BF94F89404012801D1022070BD3F
:102CD000012084F8940400BF2946206805F084F898
:102CE00000BF002084F8940400BF00BFEFE770B578
:102CF00004460E4606F00F002179884201D90120D2
:102D000070BD06F0800080280AD106F00F0000EBAD
:102D1000C00104F1140000EB81050120687009E096
:102D200006F00F0000EBC00104F5157000EB810503
:102D3000002068700020A87006F00F00287000BF07
:102D400094F89404012801D10220D9E7012084F8E5
:102D5000940400BF2946206805F044FA00BF002013
:102D600084F8940400BF00BFCAE770B504460D465E
:102D700000BF94F89404012801D1022070BD012005
:102D800084F8940400BF05F08000802805D105F088
:102D90000F01206805F039FD02E0206805F00DFD07
:102DA00000BF002084F8940400BF00BFE6E702469D
:102DB00001F00F0000EBC00302F5157000EB83007B
:102DC000406970472DE9F04705460E4690461F467C
:102DD0004FF0000906F0800080280AD106F00F00AD
:102DE00000EBC00105F1140000EB810401206070CC
:102DF00009E006F00F0000EBC00105F5157000EBCF
:102E000081040020607006F00F002070C4F8088074
:102E10002771607808B120786083022F01D10020EB
:102E2000607100BF95F89404012802D10220BDE82A
:102E3000F087012085F8940400BF2146286804F03B
:102E4000E7FE00BF002085F8940400BF4846EEE787
:102E50002DE9F04105460E461746984606F00F004C
:102E600000EBC00105F5157000EB8104E760C4F8C4
:102E7000108000206061607006F00F002070A8795B
:102E8000012800D1E761AA792146286805F03EFAB9
:102E90000020BDE8F08170B504460D4605F00F0036
:102EA0002179884201D9012070BD05F08000802879
:102EB0000AD105F00F0000EBC00104F1140000EB93
:102EC00081060120707007E005EBC50104F515705F
:102ED00000EB8106002070700120B07005F00F003B
:102EE000307000BF94F89404012801D10220DBE780
:102EF000012084F8940400BF3146206805F0B9F938
:102F000005F00F0028B9A17904F29C42206805F071
:102F100031F900BF002084F8940400BF00BFC3E76C
:102F20002DE9F04105460E461746984606F00F007B
:102F300000EBC00105F1140000EB8104E760C4F868
:102F40001080002060610120607006F00F0020708A
:102F5000A879012800D1E761AA792146286805F0FF
:102F6000D5F90020BDE8F0812DE9FE4F0446D4F8E4
:102F700000B05E46206805F085FC002874D120680A
:102F800005F0BFFC08B9BDE8FE8F40F60800805987
:102F9000C0F30D20C4F8D404206805F0B2FC00F0A2
:102FA0000200022805D12068406900F00200216873
:102FB0004861206805F0A5FC00F01000102845D1FC
:102FC0002068806920F0100021688861DBF820907B
:102FD00009F00F0000EBC00104F5157000EB810A49
:102FE000C9F3434002281AD147F6F07009EA0000FD
:102FF00030B3C9F30A125846DAF80C1005F086FC13
:10300000C9F30A11DAF80C000844CAF80C00C9F335
:103010000A11DAF814000844CAF8140010E0C9F3E1
:10302000434006280CD1082204F29C41584605F082
:103030006DFCC9F30A11DAF814000844CAF8140048
:103040002068806940F0100021688861206805F0E0
:1030500058FC00F40020B0F5002F7BD1002520683B
:1030600005F01FFC029072E0E1E2029800F001001E
:10307000002868D0E9B2206805F036FC804608F0E8
:10308000010048B1012106F5306000EB4510816078
:103090002946204602F058FC08F00800082809D10B
:1030A000082106F5306000EB451081602946204676
:1030B00002F018FC08F01000102805D1102106F5C8
:1030C000306000EB4510816008F00200022824D136
:1030D000DBF8140000F08000802807D140F60400DF
:1030E000805940F4806140F60400815105EBC50130
:1030F00004F5157000EB810A9AF80300012806D147
:1031000000208AF80300E9B2204600F09BFA022171
:1031100006F5306000EB4510816008F020002028A3
:1031200005D1202106F5306000EB4510816008F4E0
:103130000050B0F5005F06D14FF4005106F5306045
:1031400000EB451081606D1C0298400802900298C7
:1031500000288AD1206805F0D4FB00F48020B0F567
:10316000802F7DD1206805F092FB029000259AE027
:10317000029800F00100002873D0E9B2206805F041
:103180009AFB804608F00100F0B305F00F01012022
:103190008840019040F634008159019821EA0000EE
:1031A00040F634018851012106F5106000EB45100E
:1031B0008160A079012824D105EBC50104F1140038
:1031C00000EB810005EBC502C16804F1140000EBBF
:1031D00082008068014405EBC50204F1140000EB95
:1031E0008200C1606DB905EBC50104F1140000EB6C
:1031F0008100006928B904F29C420121206804F092
:10320000B9FFE9B2204600E001E0FFF7F3FC08F067
:103210000800082805D1082106F5106000EB4510CC
:10322000816008F01000102805D1102106F510600B
:1032300000EB4510816008F04000402805D1402196
:1032400006F5106000EB4510816008F002000228CE
:103250001DD12946584605F0D8FA05EBC50101E015
:1032600025E01CE004F1140000EB810A9AF8030049
:10327000012806D100208AF80300E9B2204600F0B8
:10328000D8F9022106F5106000EB4510816008F0C6
:103290008000802803D12946204602F0F7FB6D1CF0
:1032A000029840080290029800287FF461AF2068DD
:1032B00005F027FB00F00040B0F1004F1CD140F6B4
:1032C0000400805920F0010140F60400815194F877
:1032D000CC04012807D1002084F8CC04002120462A
:1032E000FFF754FC02E0204600F0CAFA206840696B
:1032F00000F0004021684861206805F002FB00F4FE
:103300000060B0F5006F0ED140F60800805900F063
:10331000010010B1204600F00BFB2068406900F46A
:10332000006021684861206805F0EBFA00F48050E5
:10333000B0F5805F7ED140F60400805920F0010195
:1033400040F6040081511021206805F05EFA002744
:1033500032E04FF67F3106F5106000EB47108160D8
:1033600006F5106000EB4710006820F4001106F528
:10337000106000EB471001604FF67F3106F53060BA
:1033800000EB4710816006F5306000EB47100068E5
:1033900020F4001106F5306000EB4710016006F5DF
:1033A000306000EB4710006840F0006106F53060C7
:1033B00000EB471001607F1C2079B842C9D840F665
:1033C0001C00805940F0011140F61C008151E07B47
:1033D00070B1D6F8840840F00B01C6F8841840F6A6
:1033E0004400805940F00B0140F6440081510FE049
:1033F00040F61400805942F22B01084340F61401B4
:103400008851081F805940F00B014FF40160815131
:10341000D6F8000820F4FE60C6F80008A17904F28E
:103420009C42206804F0A6FE2068406900F48050A9
:10343000216800E000E04861206805F062FA00F4CD
:103440000050B0F5005F17D1206804F049FC2068F7
:1034500005F005FAE07100F06DFC0090E27920685B
:10346000009905F0D5FA204600F0F8F92068406987
:1034700000F4005021684861206805F042FA00F02D
:103480000800082808D1204600F001FA20684069A9
:1034900000F0080021684861206805F032FA00F069
:1034A0008000802818D1DBF8180020F08000CBF8CD
:1034B000180001250DE005EBC50104F5157000EBC2
:1034C0008100C078012803D1E9B22046FFF7B9FB9B
:1034D0006D1C2079A842EED8206805F012FA00F49D
:1034E0008010B0F5801F2DD1012522E006F5106077
:1034F00000EB4510D0F8009005EBC50104F1140075
:1035000000EB81000079012812D109F00040B0F1F0
:10351000004F0DD1012105EBC50204F1140000EBB1
:103520008200C170E8B240F080012046FFF789FBBD
:103530006D1C2079A842D9D82068406900F4801019
:1035400021684861206805F0DCF900F40010B0F54E
:10355000001F44D1012538E006F5306000EB45102E
:10356000D0F8009005EBC50104F5157000EB810063
:103570000079012828D109F00040B0F1004F23D193
:1035800009F4803094F8D41401F0010188421BD171
:10359000012105EBC50204F5157000EB8200C17036
:1035A000DBF8180040F08000CBF81800DBF81400BE
:1035B00000F0800040B940F60400805940F40071EA
:1035C00040F60400815103E06D1C2079A842C3D865
:1035D00000BF2068406900F400102168486120683D
:1035E00005F08FF900F08040B0F1804F08D12046FF
:1035F000FFF7F9FA2068406900F0804021684861CF
:10360000206805F07EF900F0040004280FD120683E
:10361000D0F8049009F00400042802D12046FFF7F6
:1036200009FB2068406840EA09002168486000BF43
:10363000A9E470B504460D462946D4F8E00403F029
:10364000E7FE70BD70B504460D462946D4F8E00487
:1036500003F0F6FE70BDF8B504460CB90120F8BDC4
:10366000266894F8950428B9002084F8940420462C
:1036700000F0A0F8032084F89504B6F1A04F01D122
:103680000021A171206804F06DFD207C8DF8000000
:1036900094E80F0004F038FB20B1022084F8950470
:1036A0000120DCE70021206805F060F920B102204C
:1036B00084F895040120D2E7002531E0012105EBD3
:1036C000C50204F1140000EB8200417005EBC50156
:1036D00004F1140000F8215005EBC50100EB810056
:1036E0004583002105EBC50204F1140000EB8200C4
:1036F000017105EBC50204F1140000EB820081604A
:1037000005EBC50204F1140000EB8200C16005EB7B
:10371000C50204F1140000EB82000161681CC5B20F
:103720002079A842CADC00252AE0002105EBC50269
:1037300004F5157000EB8200417005EBC50104F53E
:10374000157000F82150002105EBC50200EB820046
:10375000017105EBC50204F5157000EB8200816074
:1037600005EBC50204F5157000EB8200C16005EBA6
:10377000C50204F5157000EB82000161681CC5B23A
:103780002079A842D1DC207C8DF8000094E80F005D
:1037900004F0F4FB20B1022084F8950401205EE7D8
:1037A00000206074012084F89504206804F0D4FBA4
:1037B000002054E710B586B00446142101A8FCF798
:1037C00041FD2068B0F1A04F42D100BF0020009021
:1037D0002048006840F001001E4908600846006863
:1037E00000F00100009000BF00BF4FF4C0500190F6
:1037F0000220029000200390032004900A200590EC
:1038000001A91548FDF75EFE00BF1248001D0068C3
:1038100040F080000F49091D086000BF00200090A3
:103820000C481430006840F480400A4914310860A4
:103830000846006800F48040009000BF00BF00BF51
:10384000002211464320FFF74FF94320FFF738F9D4
:1038500006B010BD303802400000024070B504468A
:103860000125E079022801D0FDF7C6F92946D4F8F0
:10387000E00403F084FED4F8E00403F029FE70BDF8
:1038800010B50446D4F8E00403F058FE10BD10B59E
:103890000446D4F8E00403F05CFE10BD70B50446A5
:1038A0000D4600BF94F89404012801D1022070BD98
:1038B000012084F8940400BF65742946206805F04F
:1038C00089F800BF002084F8940400BF00BFEEE731
:1038D00010B5044604F29C41D4F8E00403F066FEFF
:1038E00010BD70B50446256800BF94F89404012803
:1038F00001D1022070BD012084F8940400BFE86863
:1039000000F0400030B1607B012803D1A86B40F487
:103910008030A863206804F049FF206804F00AFBA7
:1039200000BF002084F8940400BF00BFE2E700005D
:1039300010B50446D4F8E00403F095FE2068D0F8F2
:10394000000E40F001002168C1F8000EE07A28B1B5
:103950000348006840F006000149086010BD0000FF
:1039600010ED00E070B50146002000220023002485
:10397000012935D11C4D2D6805F4000323B1B3F5A1
:10398000000F29D1194829E0174D2D1F2D6805F486
:103990008005B5F5800F08D1134D7C352D6805F0F5
:1039A0003F05134EB6FBF5F207E00F4D7C352D6851
:1039B00005F03F050F4EB6FBF5F20B4D7C352D683B
:1039C000C5F3881505FB02F4074D7C352D68C5F35A
:1039D0000275B4FBF5F001E0002000BF00BF00E07D
:1039E00000BF00BF70BD0000083802400080BB006F
:1039F000000077010024F400F8B5044600250026F5
:103A0000207800F0010020B9207800F0040004289C
:103A100031D1002060498866FDF746FE054606E084
:103A2000FDF742FE401B022801D90320F8BD5B4888
:103A30000068C0F3C0600028F2D1D4E9011041EA67
:103A40008011207B41EA00705449843108600120D4
:103A500051498866FDF728FE054606E0FDF724FE7D
:103A6000401B022801D90320E0E74C480068C0F35E
:103A7000C0600028F2D0207800F0020002287DD13A
:103A800000BF0020009045484030006840F0805062
:103A90004249403108600846006800F080500090BC
:103AA00000BF00BF3E48006840F480703C49086099
:103AB000FDF7FAFD054606E0FDF7F6FD401B02287E
:103AC00001D90320B2E73648006800F4807000286E
:103AD000F2D032487030006800F440764EB3208A4D
:103AE00000F44070B04224D02C487030006820F4BC
:103AF000407601202B49086000200860274870307C
:103B00000660006800F0010098B1FDF7CDFD0546A4
:103B100008E0FDF7C9FD401B41F28831884201D918
:103B2000032083E71D4870300068C0F34000002880
:103B3000EFD000BF208A00F44070B0F5407F0CD178
:103B400016480830006820F4F810174A216911401F
:103B5000084312490831086007E01048083000683F
:103B600020F4F8100D49083108600C4870300068E6
:103B7000218AC1F30B010843084900E002E07031DB
:103B8000086000BF207800F00800082802D1207DDE
:103B900006490860002049E700004742003802401B
:103BA00000700040400E4742FFFCFF0FE01147420B
:103BB00070B504460D460CB9012070BD5848006828
:103BC00000F00700A84209D255490D700846006868
:103BD00000F00700A84201D00120EEE7207800F0B5
:103BE000020002281DD1207800F00400042805D12D
:103BF0004C48006840F4E0504A490860207800F0E2
:103C00000800082805D14748006840F4604045494D
:103C100008604448006820F0F000A168084341496A
:103C20000860207800F00100A8B36068012807D17F
:103C30003C4808380068C0F34040B8B90120BCE7F0
:103C40006068022802D06068032807D13548083828
:103C50000068C0F3406048B90120AEE73148083839
:103C60000068C0F3400008B90120A6E72D480068AD
:103C700020F00300616808432A490860FDF714FD3D
:103C8000064609E0FDF710FD801B41F288318842AD
:103C900002D9032091E707E02248006800F00C00F9
:103CA0006168B0EB810FEDD11D48006800F007009E
:103CB000A84209D91A490D700846006800F00700AB
:103CC000A84201D0012078E7207800F00400042801
:103CD00007D11448006820F4E050E1680843114916
:103CE0000860207800F00800082808D10D48006816
:103CF00020F46040216940EAC1000A49086000F0F0
:103D00002FF808490968C1F30311074A515CC840FC
:103D10000649086006480068FEF788FE00204CE768
:103D2000003C024008380240489A0008FC0300208A
:103D3000F40300200148006870470000FC030020E5
:103D400000B5FFF7F7FF04490968C1F38221034A70
:103D5000515CC84000BD000008380240589A000875
:103D60002DE9F047002400250026A14625480068DB
:103D700000F00C0020B1042805D008283AD105E055
:103D8000DFF8849039E0DFF8849036E01D48001FAA
:103D9000006800F03F041B48001F006800F480002A
:103DA00078B11A481749091F0968C1F38811A0FBA7
:103DB00001700146224600233846FCF70BFA0546FF
:103DC0000EE011480F49091F0968C1F38811A0FBD3
:103DD00001700146224600233846FCF7FBF90546F0
:103DE0000848001F0068C0F30140401C4600B5FBB6
:103DF000F6F902E0DFF8109000BF00BF4846BDE8CA
:103E0000F0870000083802400024F4000000770129
:103E1000F8B504460CB90120F8BD207800F0010087
:103E2000002874D0F948006800F00C0004280DD078
:103E3000F648006800F00C00082813D1F348001F72
:103E4000006800F48000B0F5800F0BD1EF4808380F
:103E50000068C0F34040002859D06068002856D15F
:103E60000120D9E700BF6068B0F5803F08D1E7487E
:103E70000838006840F48030E449083908601EE0E2
:103E80006068B0F5A02F0DD1E0480838006840F414
:103E90008020DE49083908600846006840F4803018
:103EA00008600CE0D9480838006820F48030D74911
:103EB000083908600846006820F48020086000BFC8
:103EC000606890B1FDF7F0FB054606E0FDF7ECFBFE
:103ED000401B642801D903209EE7CC4808380068BD
:103EE000C0F340400028F1D011E0FDF7DDFB0546AE
:103EF00006E0FDF7D9FB401B642801D903208BE7BE
:103F0000C24808380068C0F340400028F1D120784A
:103F100000F0020002285FD1BC48006800F00C00ED
:103F200058B1BA48006800F00C0008281CD1B74806
:103F3000001F006800F48000B0B9B4480838006879
:103F4000C0F3400020B1E068012801D0012063E700
:103F5000AE480838006820F0F800216940EAC10046
:103F6000AA490839086037E0E06800B30120A84991
:103F70000860FDF799FB054606E0FDF795FB401B41
:103F8000022801D9032047E7A04808380068C0F399
:103F900040000028F1D09D480838006820F0F80063
:103FA000216940EAC10099490839086014E00020FD
:103FB00097490860FDF778FB054606E0FDF774FBBE
:103FC000401B022801D9032026E7904808380068E2
:103FD000C0F340000028F1D1207800F00800082844
:103FE0002CD16069A8B101208A490860FDF75CFB0B
:103FF000054606E0FDF758FB401B022801D90320C7
:104000000AE782486C300068C0F340000028F1D015
:1040100014E000207F490860FDF746FB054606E0F6
:10402000FDF742FB401B022801D90320F4E6774844
:104030006C300068C0F340000028F1D1207800F017
:104040000400042870D1002770483830006800F060
:10405000805090B900BF002000906C483830006854
:1040600040F080506949383108600846006800F027
:104070008050009000BF00BF01276748006800F42F
:104080008070B0B96448006840F48070624908608C
:10409000FDF70AFB054606E0FDF706FB401B02287C
:1040A00001D90320B8E65C48006800F4807000285D
:1040B000F2D000BFA068012808D1544868300068D9
:1040C00040F001005149683108601DE0A0680528F2
:1040D0000DD14E486830006840F004004B4968310B
:1040E00008600846006840F0010008600CE047489E
:1040F0006830006820F001004449683108600846D3
:10410000006820F00400086000BFA068A8B1FDF7B7
:10411000CBFA054609E0FDF7C7FA401B41F28831AA
:10412000884202D9032077E626E0384868300068E4
:10413000C0F340000028EED013E0FDF7B5FA0546C5
:1041400008E0FDF7B1FA401B41F28831884201D9FD
:10415000032061E62D4868300068C0F34000002865
:10416000EFD1012F07D129483830006820F0805066
:1041700026493831086000BFA069002845D023488F
:10418000006800F00C0008285DD0A069022845D125
:1041900000201F490866FDF787FA054606E0FDF78F
:1041A00083FA401B022801D9032035E61748083856
:1041B0000068C0F340600028F1D1D4E9070108434A
:1041C000616A40EA81110122A06AC2EB500041EA13
:1041D00000412C20005D41EA00600C49091F086085
:1041E00001200B490866FDF75FFA054606E0FDF77A
:1041F0005BFA401B022801D903200DE6034808386A
:104200000068C0F340600028F1D049E0083802405F
:1042100000004742800E47420070004000202149C4
:104220000866FDF741FA054606E0FDF73DFA401B3A
:10423000022801D90320EFE51B480068C0F3406065
:104240000028F2D12CE0A069012800D1E4E516484D
:10425000001D0668A069012820D006F48001E069ED
:1042600081421BD106F03F01206A814216D147F6F8
:10427000C0703040616AB0EB811F0FD106F440314D
:104280000122A06AC2EB5000B1EB004F06D106F04C
:1042900070612C20005DB1EB006F01D00120BBE507
:1042A0000020B9E5000047420038024002460023E2
:1042B000106800F1500303EB81031868704710B5D4
:1042C0000023046804F1500303EB81031A6010BD5E
:1042D00070B5044601250CB9012070BD607F20B97E
:1042E00000202077204600F04DF8022060772068FB
:1042F000C068C0F3001000283CD100BFCA2021686C
:10430000486253202168486200BF204601F00CFD3E
:104310000546EDB920688068194908402168886021
:104320002169606808436169084321688968084316
:10433000216888602168E068086120680169208937
:1043400041EA004021680861204601F012FD05465F
:104350005DB92068006C20F4802021680864206822
:10436000006CA16908432168086400BFFF20216830
:10437000486200E000250DB9012060772846ACE7CF
:10438000BFFF8FFF10B586B0044618216846FBF7C3
:1043900059FF0949206888420CD102200090C001D1
:1043A00004906846FFF728FB08B1FCF725FC0120C4
:1043B0000249086006B010BD002800403C0E47428C
:1043C0002DE9F04105460C4617464FF0000800BFA6
:1043D000287F012802D10220BDE8F0810120287742
:1043E00000BF022068774FB9607800F010001028F5
:1043F00004D1607800F0EF000A30607087B9E0788F
:1044000001F085FC0304607801F081FC43EA00239D
:10441000A07801F07CFC0343207843EA403809E0AF
:10442000E0780004617840EA0120A178084321780F
:1044300040EA413800BFCA202968486253202968F1
:10444000486200BF284601F06FFC064646B90B489B
:1044500008EA000029684860284601F08AFC064600
:104460000EB90120687700BFFF202968486200BFAD
:1044700000BF0020287700BF3046ADE73FFFFF00B8
:104480002DE9F04104460D4617464FF0000800BFE5
:10449000207F012802D10220BDE8F0810120207791
:1044A00000BF02206077CFB92068806800F040002C
:1044B00000B102E00020E87000BF287801F027FC7E
:1044C0000304687801F023FC43EA0023A87801F094
:1044D0001EFC0343E87843EA805812E020688068B5
:1044E00000F0400000B102E00020E87000BF287832
:1044F0000004697840EA0120A9780843E97840EA95
:10450000815800BFCA202168486253202168486250
:1045100000BF204601F008FC0646B6B9124808EA7A
:104520000000216808602068806820F480202168ED
:104530008860D5E903010843216889680843216838
:104540008860204601F015FC06460EB90120607710
:1045500000BFFF202168486200BF00BF0020207715
:1045600000BF304698E700007F7F7F0070B50446AB
:1045700000250B482168C860FDF796F8054607E05E
:10458000FDF792F8401BB0F57A7F01D9032070BD8A
:104590002068C06800F020000028F1D00020F6E775
:1045A0005F3F010010B504460CB9012010BD606AE0
:1045B00038B96068B0F5827F00D105E00021E16183
:1045C00002E00021216161610021A16294F85100A3
:1045D00028B9002084F85000204600F047F8022057
:1045E00084F851002068006820F0400021680860CD
:1045F000A08800F48270218901F404410843A18954
:1046000001F400610843217C01F002010843217D8F
:1046100001F001010843218B01F400710843217F5F
:1046200001F0380108432021095D01F080010843B1
:10463000218D01F400510843216808600421A0691C
:1046400001EA104094F8241001F010010843216899
:1046500048602068C06920F400602168C8610020BB
:104660006065012084F8510000209FE710B586B0F6
:104670000446142101A8FBF7E5FD2A492068884279
:104680004DD100BF002000902748006840F48050C2
:10469000254908600846006800F48050009000BF7B
:1046A00000BF00BF002000901F481438006840F091
:1046B00001001D49143908600846006800F0010037
:1046C000009000BF00BFA0200190022002900020B7
:1046D0000390032004900520059001A91348FCF7DE
:1046E000F1FE1348134908604FF080604860402194
:1046F000104881600021C1604FF480610161002198
:1047000041618161C16101624162FCF7BBFD08B199
:10471000FCF772FA00BF0748A064846300BF06B0CC
:1047200010BD00000030014044380240000002404B
:1047300040640240D424002070B504462546681E1B
:10474000B0F1807F01D301200FE0681E4FF0E0211F
:1047500048610F214FF0FF3004F066FA00204FF05F
:10476000E021886107200861002070BD30B5024655
:104770000B4600BF92F83C00012801D1022030BD59
:10478000012082F83C0000BF022082F83D00106842
:1047900044681068816824F0700418680443106845
:1047A0004460144D1068A84213D01068B0F1804FD7
:1047B0000FD0114D1068A8420BD0104D1068A842C0
:1047C00007D00F4D1068A84203D00E4D1068A842C4
:1047D00005D121F0800158680143106881600120F3
:1047E00082F83D0000BF002082F83C0000BF00BFFF
:1047F000C5E7000000000140000400400008004040
:10480000000C0040004001402DE9F04104460D46F7
:1048100014B90120BDE8F08194F83D0028B90020CA
:1048200084F83C00204600F053F8022084F83D0054
:104830002068806844F20701884321688860211D50
:10484000206801F053FB2068D0F808802068866952
:104850002068076A286840EA080840F20330864367
:10486000A969A86840EA0120064340F60C40864347
:104870004FF2F0008643E969E86840EA0120064308
:1048800028690001296A40EA0130064327F022071F
:1048900027F088076969686840EA011007432068C3
:1048A000C0F808802068866120680762012084F8CB
:1048B000460084F83E0001213F200155012084F884
:1048C000420043200155012084F83D000020A1E76B
:1048D00010B586B00446142101A8FBF7B3FC20688C
:1048E000B0F1804F4DD100BF0020009026480068F5
:1048F00040F00100244908600846006800F001000B
:10490000009000BF00BF00BF002000901E4810387C
:10491000006840F001001C49103908600846006832
:1049200000F00100009000BF00BF00BF0020009019
:104930000846006840F0020008600846006800F081
:104940000200009000BF00BF4FF400400190022021
:10495000029001200390002004900120059001A9FD
:104960000A48FCF7AFFD08200190022002900120C8
:104970000390002004900120059001A90448FCF751
:10498000A1FD06B010BD000040380240000002400A
:1049900000040240024600201B4B9A4232D21A21E8
:1049A0002EE000F00F03052B00D3C01CC0F303134F
:1049B000052B00D33030C0F30323052B01D300F5C2
:1049C0004070C0F30333052B01D300F54050C0F312
:1049D0000343052B01D300F54030C0F30353052BEF
:1049E00001D300F54010C0F30363052B01D300F1A0
:1049F000407022FA01F360F35F0318464B1E59B270
:104A00000029CEDA7047000000E1F50500BFFEE79F
:104A1000014608684069C0F38020B0B16FF480603F
:104A20000A68506100200863202081F83D000020C2
:104A300081F83E00086C40F00400086400BF0020CC
:104A400081F83C0000BF012070470020FCE7000017
:104A50002DE9F84304460D4690461E46E76A206855
:104A6000006840F4806021680860082F04D0012F9E
:104A700002D017F5803F06D12068006840F48070AE
:104A80002168086008E0206B112805D120680068C3
:104A900040F4807021680860434600224FF0011105
:104AA0002046009600F073F960B12068006800F4B9
:104AB0008070B0F5807F02D14FF400702064032035
:104AC000BDE8F8832069B0F5804F05D1E8B240F029
:104AD00001002168086149E005F44070F02141EAD5
:104AE000E01021680861334642462649204600F01E
:104AF000ADF908B10120E3E7E8B221680861334667
:104B000042462049891F204600F0A0F908B1012043
:104B1000D6E700BF00200090206840690090206820
:104B20008069009000BF00BF2068006840F480707A
:104B300021680860434600224FF00111204600968C
:104B400000F025F958B12068006800F48070B0F5D5
:104B5000807F02D14FF4007020640320B0E705F499
:104B60004070F12141EAE010216808613346424675
:104B70000449891F204600F069F908B101209FE728
:104B800000209DE7080001002DE9F84304460D468A
:104B900017469846E66A082E04D0012E02D016F574
:104BA000803F06D12068006840F48070216808606A
:104BB00008E0206B122805D12068006840F480705E
:104BC000216808603B4600224FF001112046CDF8D5
:104BD000008000F0DCF860B12068006800F48070AC
:104BE000B0F5807F02D14FF4007020640320BDE84F
:104BF000F8832069B0F5804F04D105F0FE002168EC
:104C0000086112E005F44070F02141EAE0102168EB
:104C1000086143463A460B49204600F017F908B1AF
:104C20000120E4E7E8B22168086143463A460549B5
:104C3000891F204600F00AF908B10120D7E70020BB
:104C4000D5E70000080001002DE9F8430446884636
:104C500015469946DDE908672068006840F48070D1
:104C600021680860334600224FF00111204600976A
:104C700000F08DF860B12068006800F48070B0F535
:104C8000807F02D14FF4007020640320BDE8F883D8
:104C900008F0FE00216808613B4632462149204663
:104CA00000F0D4F808B10120F0E700BF0020009028
:104CB00020684069009020688069009000BF00BFB4
:104CC0003A463146204600F083F950B1206C042862
:104CD00005D12068006840F4007021680860012058
:104CE000D4E7B9F1010F03D1E8B22168086117E0F8
:104CF000C5F30720216808613A463146204600F096
:104D000067F950B1206C042805D12068006840F490
:104D10000070216808600120B8E7E8B221680861E6
:104D20000020B3E70200010070B504460D461646A8
:104D300025E02046FFF76CFE08B1012070BD681C1D
:104D4000E8B1FCF7B1FC801BA84200D8BDB92068CF
:104D50004069C0F3800090B900202063202084F8CF
:104D60003D00002084F83E00206C40F020002064CC
:104D700000BF002084F83C0000BF0120DEE720686F
:104D80004069C0F380000028D3D00020D6E72DE989
:104D9000F04104460D4617461E46DDF8188038E0FF
:104DA000701CA8B3FCF780FCA0EB0800B04200D850
:104DB00076BBC5F3074001280AD120684069A9B233
:104DC0000840A9B2884201D101200BE0002009E08F
:104DD00020688069A9B20840A9B2884201D10120A7
:104DE00000E00020B84214D100202063202084F885
:104DF0003D00002084F83E00206C40F0200020643C
:104E000000BF002084F83C0000BF0120BDE8F08115
:104E1000FFE7C5F3074001280AD120684069A9B21D
:104E20000840A9B2884201D101200BE0002009E02E
:104E300020688069A9B20840A9B2884201D1012046
:104E400000E00020B842ABD00020DFE72DE9F041C0
:104E500004460D4616461F4658E020684069C0F3D8
:104E60008020E8B12068006840F400702168086084
:104E70006FF480602168486100202063202084F85E
:104E80003D00002084F83E00206C40F004002064C7
:104E900000BF002084F83C0000BF0120BDE8F08185
:104EA000701C90B3FCF700FCC01BB04200D866BB7E
:104EB000C5F3074001280AD120684069A9B208401B
:104EC000A9B2884201D101200BE0002009E020684E
:104ED0008069A9B20840A9B2884201D1012000E04E
:104EE000002090B900202063202084F83D0000209D
:104EF00084F83E00206C40F02000206400BF0020B9
:104F000084F83C0000BF0120C8E7FFE7C5F3074075
:104F100001280AD120684069A9B20840A9B2884294
:104F200001D101200BE0002009E020688069A9B2CE
:104F30000840A9B2884201D1012000E000200028E9
:104F40008BD00020AAE770B504460D46164637E020
:104F500020684069C0F30010A0B16FF01000216814
:104F6000486100202063202084F83D00002084F860
:104F70003E00206C206400BF002084F83C0000BF8D
:104F8000012070BDFCF790FB801BA84200D8BDB982
:104F900020684069C0F3801090B900202063202071
:104FA00084F83D00002084F83E00206C40F0200092
:104FB000206400BF002084F83C0000BF0120E0E72F
:104FC00020684069C0F380100028C1D00020D8E7D5
:104FD00070B504460D46164625E02046FFF718FD3D
:104FE00008B1012070BD681CE8B1FCF75DFB801BB7
:104FF000A84200D8BDB920684069C0F3C01090B97C
:1050000000202063202084F83D00002084F83E002A
:10501000206C40F02000206400BF002084F83C0099
:1050200000BF0120DEE720684069C0F3C0100028FF
:10503000D3D00020D6E710B504462068C06881B2FE
:10504000E26A901CE0621180608E401E6086608E75
:1050500068B92068406820F0600021684860608D71
:1050600028B9012084F841002046FDF7D3FA10BD8D
:1050700010B5044617492068884201D1164801E05E
:105080004FF04020C06881B2E26A901CE06211805B
:10509000608E401E6086608ED8B90E4920688842B6
:1050A00001D10D4801E04FF04020406820F0600041
:1050B000084A2168914201D1074901E04FF040219F
:1050C0004860608D28B9012084F841002046FDF732
:1050D000A1FA10BD003800400034004010B504466D
:1050E000616A881C606208882168C860608D401E03
:1050F0006085608D68B92068406820F0A000216854
:105100004860608E28B9012084F841002046FDF7F0
:1051100081FA10BD10B50446616A881C6062088877
:10512000154A2168914201D1144901E04FF0402114
:10513000C860608D401E6085608DD8B90E492068BA
:10514000884201D10D4801E04FF04020406820F036
:10515000A000094A2168914201D1084901E04FF0BD
:1051600040214860608E28B9012084F84100204623
:10517000FDF750FA10BD0000003800400034004038
:1051800070B50546AC6BE869002846D12068C06957
:1051900000F44070B0F5007F04D02068C06900F4CE
:1051A0004070D0B91F492068884201D11E4801E0F3
:1051B0004FF04020406820F001001A4A21689142D7
:1051C00001D1194901E04FF0402148602068406852
:1051D00020F002002168486019E02068406820F053
:1051E0000100216848600F492068884201D10E48BB
:1051F00001E04FF04020406820F00200094A216899
:10520000914201D1084901E04FF04021486000205F
:1052100060866085012084F841002046FDF7FAF998
:1052200070BD0000003800400034004070B50546F5
:10523000AC6B2068406820F0030021684860114989
:105240002068884201D1104801E04FF040204068BA
:1052500020F003000B4A2168914201D10A4901E084
:105260004FF040214860002060856086012084F86E
:105270004100606C40F0080060642046FDF7EAF9E8
:1052800070BD0000003800400034004070B5044696
:10529000A56B2846FDF7CEF970BD1CB50446206805
:1052A0008068019094F84100042830D1019800F002
:1052B000010038B120684068C0F3801010B120466A
:1052C00000F059F8019800F0400040281FD12068F4
:1052D0004068C0F34010D0B12068406820F0600002
:1052E0002168486000BF002000902068C0680090DE
:1052F00020688068009000BF00BF012084F8410052
:10530000606C40F0020060642046FDF7A3F994F859
:10531000410003282ED1019800F00200022807D195
:1053200020684068C0F3C01010B1204600F03EF87D
:10533000019800F0080008281CD120684068C0F3DC
:105340004010B8B12068406820F0A0002168486093
:1053500000BF0020009020688068009000BF00BF60
:10536000012084F84100606C40F004006064204635
:10537000FDF770F91CBD10B504462068C068E16AED
:105380000880E06A801CE062608E401E6086608E4D
:1053900058B92068406820F060002168486001200A
:1053A00084F841002046FDF715FB10BD10B50446FA
:1053B000606A00882168C860606A801C6062608DD5
:1053C000401E6085608D58B92068406820F0A000BC
:1053D00021684860012084F841002046FDF7FBFA6F
:1053E00010BD30B50B46002100BF16E00A24B4EB17
:1053F000107F05D9302404EB107403F8114005E048
:10540000412404EB10740A3C03F81140000100250C
:105410004C00641C1D554C1CE1B29142E6DB30BDD2
:105420001FB5002000900190029003901548164986
:1054300008604FF4803048600021134881600161AA
:10544000017680F82010C162104981620021C1609C
:105450000121C161002180F8301001214161FBF779
:1054600073FD08B1FBF7C8FB0220009001200190FA
:105470000720029069460448FBF7E0FB08B1FBF700
:10548000BBFB1FBD00200140642200200100000F73
:1054900008B500BF002000901A48006840F40010D2
:1054A000184908600846006800F40010009000BF2A
:1054B00000BF00BF002000900846006840F4800054
:1054C00008600846006800F48000009000BF00BF3C
:1054D000002211460E20FDF707FB0E20FDF7F0FA23
:1054E000002211460F20FDF7FFFA0F20FDF7E8FA22
:1054F000002211463A20FDF7F7FA3A20FDF7E0FACC
:1055000008BD00003038024000B587B0142102A861
:10551000FAF798FE00BF002001904348006840F071
:105520000400414908600846006800F0040001904A
:1055300000BF00BF00BF002001900846006840F097
:10554000800008600846006800F08000019000BFFD
:1055500000BF00BF002001900846006840F0010035
:1055600008600846006800F00100019000BF00BF1D
:1055700000BF002001900846006840F0020008606B
:105580000846006800F00200019000BF00BF002242
:1055900003212648FCF782F8012218212348FCF752
:1055A0007DF8012267212248FCF778F800224FF4A9
:1055B00080611F48FCF772F81B20029001200390C5
:1055C000002004900220059002A91848FBF77AFFFA
:1055D00040F26740029001200390002004900220D6
:1055E000059002A91248FBF76DFF4FF4C0600290CE
:1055F0004FF4881003900120049002A90B48FBF798
:1056000061FF002211461720FDF76EFA1720FDF703
:1056100057FA002211462820FDF766FA2820FDF7E8
:105620004FFA07B000BD00003038024000000240D1
:105630000004024010B50B480B4908600B48486055
:10564000002109488160C1604FF48041016100215F
:1056500041618161C1610162FCF730F808B1FBF77B
:10566000CBFA10BD00540040AC220020A0860100FF
:1056700010B50B480B4908600B48486000210948E9
:105680008160C1604FF4804101610021416181610D
:10569000C1610162FCF712F808B1FBF7ADFA10BD69
:1056A000005C004000230020A086010010B50C48DB
:1056B0000C4908604015486000210A488160C160BB
:1056C0004FF4007101610849416100218161C161AC
:1056D00001210162FCF7C0FF08B1FBF78DFA10BD94
:1056E00000380040542300200077010000B587B047
:1056F000142102A8FAF7A6FD0020019021482249B2
:105700000860002048607F211F488160FF21C16040
:105710000021016141618161FEF7DAFD08B1FBF70B
:105720006BFA01211848FEF7C1FD40BB00208DF83F
:1057300008008DF809008DF80A00059006900122F6
:1057400002A91148FEF79CFE08B1FBF755FA0120AB
:105750008DF804008DF805008DF8060000208DF806
:105760000700012201A90848FEF72AFE08B1FBF74D
:1057700043FA4FF0004201210348FEF7A0FD07B0B5
:1057800000BD0000002800405C24002010B50F4838
:105790000F4908604FF4827048604FF400410C4894
:1057A00081600021C160016141614FF4007181613C
:1057B0000021C1610162416281620A21C162FEF77A
:1057C000F1FE08B1FBF718FA10BD000000300140EF
:1057D0007C24002000B58BB0242102A8FAF732FD0A
:1057E0000020009001904FF0804017490860002091
:1057F0004860002114488160491EC1600021016198
:105800008161032002900020039001200490002079
:1058100005900690079001200890002009900A90BA
:1058200002A90948FEF7F0FF08B1FBF7E5F90020EF
:105830000090019069460448FEF798FF08B1FBF715
:10584000DBF90BB000BD00003425002010B50022AC
:1058500019491A4801F061FC08B1FBF7CDF9802124
:105860001748FDF794F9402200211548FDF794F9F7
:10587000102201211248FDF78FF910220221104851
:10588000FDF78AF9C02203210D48FDF785F90D497E
:105890000A4801F025FF08B1FBF7AEF90A490748AD
:1058A00001F0A8F808B1FBF7A7F9044801F0FAFFE6
:1058B00008B1FBF7A1F910BD24000020B427002097
:1058C0009431002088000020C000002000BFFEE7C7
:1058D00000BFFEE710B50248FDF746FB10BD000013
:1058E000943100202DE9F04704460D4626683746DE
:1058F000D6F8408007F5306000EB4510D0F80890EE
:10590000104880450BD909F40040B0F5004F06D18E
:105910004FF4004107F5306000EB451081602046F0
:10592000FDF7D6FF0748804508D9A079012805D1A1
:1059300004F29C420121206802F01CFC0020BDE81A
:10594000F08700000A30544F2DE9F04705460C4619
:10595000D5F800904E46D9F840A006F5306000EB2F
:105960004410D0F80880A879012855D108F0080023
:1059700008280FD1434882450BD908F40040B0F500
:10598000004F7BD14FF4004106F5306000EB44102E
:10599000816073E008F02000202806D1202106F560
:1059A000306000EB4410816068E008F028000028B7
:1059B00064D1344882450CD908F40040B0F5004F5A
:1059C00007D14FF4004106F5306000EB44108160D0
:1059D00054E004EBC40105F5157000EB810706F5F2
:1059E000306000EB4410396A0069C0F31200081AF5
:1059F000786164B9386930B905F29C4201212868A0
:105A000002F0B8FB03E07969F8680844F860E1B295
:105A10002846FDF7FFF831E01B4882451BD108F40A
:105A20000040B0F5004F07D14FF4004106F530605B
:105A300000EB4410816021E008F02000202805D10F
:105A4000202106F5306000EB44108160E1B2284669
:105A5000FDF7E0F812E06CB904EBC40105F5157030
:105A600000EB8100006928B905F29C4200212868FA
:105A700002F080FBE1B22846FDF7CCF80020BDE83B
:105A8000F08700000A30544F0A31544F2DE9F84F87
:105A900007460E46D7F80090C84606EBC60107F148
:105AA000140000EB8104D4E90410884202D90120DB
:105AB000BDE8F88FD4E90401451AA068A84200D2D5
:105AC000A568E81C4FEA900A17E0D4E90401451ADA
:105AD000A068A84200D2A568E81C4FEA900AB879ED
