:020000040800F2
:10000000883C0020AD010008817C0008A168000840
:100010007D7C00081506000899C700080000000054
:1000200000000000000000000000000045840008FF
:10003000F511000800000000398300082D87000832
:10004000C7010008C7010008C7010008C701000870
:10005000C7010008C7010008C7010008C701000860
:10006000C7010008C7010008C7010008C701000850
:10007000C7010008C70100085D0B00086D0B0008F0
:10008000C7010008C70100082503000800000000A0
:100090000000000000000000000000000512000841
:1000A000C7010008C7010008C7010008C701000810
:1000B000C7010008C7010008C7010008C701000800
:1000C000C7010008C7010008C7010008C7010008F0
:1000D000C7010008C7010008C701000800000000B0
:1000E000F9110008C7010008C7010008000000005E
:1000F000000000000000000000000000C701000830
:1001000000000000C7010008C7010008C70100087F
:1001100000000000000000000000000000000000DF
:10012000C7010008C70100087D0B0008C7010008CF
:10013000C7010008000000000000000000000000EF
:10014000000000000000000000000000F17C00083A
:10015000C7010008C7010008C7010008C70100085F
:10016000C7010008C70100080000000000000000EF
:10017000000000000000000000000000000000007F
:1001800000000000C701000800000000000000009F
:10019000C7010008C7010008DFF80CD000F07AF8AA
:1001A000004800471DD20008883C002006488047D0
:1001B00006480047FEE7FEE7FEE7FEE7FEE7FEE74C
:1001C000FEE7FEE7FEE7FEE7198800089901000850
:1001D0002DE9F05F0546002092469B46884606467C
:1001E000814640241BE0284641464746224600F00F
:1001F00041F853465A46C01A914110D31146184649
:10020000224600F028F82D1A67EB01084F462246D7
:100210000120002100F01FF817EB00094E41201EBD
:10022000A4F10104DFDC484631462A464346BDE8D6
:10023000F09FD2B201E000F8012B491EFBD27047BB
:100240000022F6E710B513460A4604461946FFF7A2
:10025000F0FF204610BD202A04DB203A00FA02F10C
:10026000002070479140C2F1200320FA03F31943A4
:1002700090407047202A04DB203A21FA02F0002146
:10028000704721FA02F3D040C2F1200291400843A6
:10029000194670471CB50948009009480190054669
:1002A000009C06E0E06840F0010394E807009847EE
:1002B0001034AC42F6D3FFF773FF0000F4D9000806
:1002C00014DA000870B58D1810F8014B14F0030211
:1002D00001D110F8012B231106D110F8013B03E0E6
:1002E00010F8016B01F8016B521EF9D1ABB110F897
:1002F000012B04F00C048A1A0C2C03D0A2EB8412FC
:100300009B1C08E010F8014BA2EB0422F8E712F85E
:10031000014B01F8014B5B1EF9D5A942D4D3002053
:1003200070BD000080B542F65820C2F2000001F016
:10033000CBF880BD82B0019042F20030C4F20100DF
:1003400000900099486820F4403048600198426865
:10035000009948681043486001980168486820F493
:1003600080704860019801680269486840EA02208C
:10037000486001980168486820F040704860019822
:10038000016882684868104348600198016888687D
:1003900020F40060886001980168C2688868104392
:1003A00088600198806A0121C0F60071884219D0E6
:1003B000FFE701980168886820F070608860019804
:1003C0000168826A886810438860019801688868BB
:1003D00020F04050886001980168C26A8868104324
:1003E00088600CE001980168886820F0706088607F
:1003F00001980168886820F040508860FFE7019804
:100400000168886820F0020088600198027E016817
:10041000886840EA42008860019890F82000C8B1DE
:10042000FFE701980168486840F40060486001985F
:100430000168486820F46040486001980168426A99
:100440004EF20000CFF6FF7000EB423248681043D6
:10045000486006E001980168486820F40060486040
:10046000FFE701980168C86A20F47000C86201982B
:100470000168C2690020CFF6F07000EB0252C86A32
:100480001043C86201980168886820F40070886091
:10049000019890F830200168886840EA422088601E
:1004A00001980168886820F480608860019801687C
:1004B0004269886840EA8220886002B07047000084
:1004C00080B584B0039002918DF807209DF8070055
:1004D000013801460091032812D80099DFE801F0A5
:1004E0000206030B0CE000F047FD09E003980299B7
:1004F00000F0A4FD04E00398029900F013FCFFE76C
:10050000002004B080BD000081B00090002001B048
:10051000704700000020704783B002900191009264
:10052000002003B07047000081B08DF80300002068
:1005300001B0704781B08DF80300002001B0704712
:1005400080B584B0039002910398D0F8BC0201906A
:10055000019800F225604021FFF772FE039801998F
:1005600001F22561029AD28809F09CFB04B080BD9B
:1005700080B584B0039002910398D0F8BC0201903A
:100580000298C088B8B1FFE70398019901F225618C
:10059000029AD28809F058FB0199012081F82406BB
:1005A00002988079019981F865060298407901994D
:1005B00081F86606FFE704B080BD000081B08DF8C9
:1005C0000300002001B0704783B00290002000902B
:1005D0008DF80700FFE79DF90700022812DCFFE70E
:1005E0009DF80810009808430090009800020090C1
:1005F0000298000A0290FFE79DF8070001308DF88D
:100600000700E8E79DF8081000980843009000985C
:1006100003B07047FFE7FEE780B582B08DF80700B2
:1006200040F60870C2F20000B0F848003F2804D13C
:10063000FFE70020ADF8040009E040F60870C2F2C0
:100640000000B0F848000130ADF80400FFE7BDF845
:10065000040040F60871C2F20001B1F84A10884265
:1006600014D0FFE79DF8070040F60871C2F20001C0
:100670000091B1F848200A449070BDF80400A1F838
:1006800048000CF015FB00994864FFE702B080BDFC
:1006900080B582B08DF807009DF8070018B3FFE71A
:1006A00040F60870C2F20000407890B1FFE70CF00D
:1006B000FFFA40F60871C2F20001496C401A1D2889
:1006C00003D8FFE70CF008FA02E00CF07DF9FFE731
:1006D00008E00CF079F940F60871C2F2000101203F
:1006E0004870FFE706E040F60871C2F20001002002
:1006F0004870FFE702B080BD80B584B08DF80F0070
:100700000291ADF806209DF80F00014600912328C4
:100710003DD80099DFE801F012131415163B3B3B5E
:100720003B3B3B3B3B3B3B3B3B3B3B3B3B3B3B3B19
:100730003B3B3B3B3B3B3B3B1718193A28E027E050
:1007400026E025E024E023E022E000208DF80500EB
:100750008DF8040002988078C00720B1FFE70120DF
:100760008DF80500FFE7029880788007002804D5FF
:10077000FFE701208DF80400FFE79DF8050007F072
:10078000A5FC9DF8040007F053FD01E000E0FFE741
:10079000002004B080BD00000020704780B582B00A
:1007A00042F28870C2F20000009040F6C861C2F2C6
:1007B00000010022019208F0CDFD009840F688610A
:1007C000C2F2000108F0ACFD019802B080BD00004B
:1007D00080B584B00390029100200190FFE701985A
:1007E0000299096888420AD2FFE703980199405CA0
:1007F000FFF712FFFFE7019801300190EFE703993F
:1008000042F28870C2F20000009008F089FD009862
:1008100008F056FD002004B080BD000083B00290B7
:1008200001918DF8032000208DF802009DF902004F
:1008300003B0704780B586B00490ADF80E1000206C
:100840008DF80D000498BDF80E1000F02BF88DF80F
:100850000D0042F28870C2F20000D0F8BC02029093
:100860000298D0F8140220B1FFE701208DF817009C
:1008700013E00499BDF80E2042F28870C2F2000025
:10088000019008F067FD019808F052FE8DF80D0008
:100890009DF80D008DF81700FFE79DF8170006B0D2
:1008A00080BD000080B582B00190ADF8021000203C
:1008B0008DF8010042F28870C2F2000040F65471D7
:1008C000C2F200010DF02CF89DF8010002B080BDCD
:1008D00080B582B08DF8070000208DF806009DF8E5
:1008E00007104DF67C10C0F60000009000EB4100B0
:1008F00040788DF806009DF806102F200CF034FB90
:100900009DF8061040200CF02FFB00989DF8071072
:1009100010F8110002B080BD80B58AB040F20040EE
:10092000C4F202000090202103910022099201F0FC
:1009300087FC6420019001F025FA009803990122B8
:10094000029201F07DFC019801F01CFA0999084619
:100950000CF0BAFB029965200CF0B6FB6620022170
:1009600006910CF0B1FB039903200CF0ADFB0720BE
:1009700004906A210CF0A8FB04990E200CF03AFABE
:100980002520E0210CF0A0FB2620102105910CF081
:100990009BFB0C2050210CF097FB09990F200CF0C9
:1009A000E3FA059809990CF0DFFA069913200CF088
:1009B00021FA069916200CF01DFA09993A200CF03C
:1009C00019FA099948200CF015FA099933200CF00E
:1009D00011FA099941200CF00DFA09995620079057
:1009E0000CF008FA09995D2008900CF003FA0798BA
:1009F00009990CF03BFB089809990CF037FB19207A
:100A000040210CF061FB00F003F80AB080BD00004B
:100A100080B584B00CF040FA1920002100910CF050
:100A200053FB11200F2101910CF0CCFA01991220F7
:100A30000CF0C8FA009913200CF0C4FA00991620A3
:100A40000CF0C0FA5220072102910CF0ABF9029988
:100A50005C200CF0A7F902992F200CF0CBF9029939
:100A600040200CF0C7F9029936200CF0C3F9029926
:100A700047200CF0BFF9019802990CF093F9029904
:100A800010200CF08FF902992B200CF08BF90299B1
:100A90002C200CF087F93320032103910CF0AAF9E4
:100AA000039941200CF0A6F903993A200CF0A2F921
:100AB000039948200CF09EF904B080BD80B586B043
:100AC0000CF0EAF913200F2103910CF07BFA039943
:100AD00016200CF077FA1920402102910CF0F4FA5C
:100AE0001120002101910CF06DFA019912200CF0F7
:100AF00069FA3620072104910CF054F90499472033
:100B00000CF050F904992F200CF04CF9029804993C
:100B10000CF048F9049952200CF06CF904995C200F
:100B20000CF068F9039804990CF03CF90499102032
:100B30000CF038F904992B200CF034F904992C208E
:100B40000CF030F95620032105910CF053F905996A
:100B50005D200CF04FF906B080BD000080B542F674
:100B6000A020C2F2000000F063FE80BD80B542F616
:100B70006030C2F2000000F05BFE80BD80B542F63E
:100B80000030C2F2000000F053FE80BD82B0019040
:100B90000198007810384AF6AB21CAF6AA21A0FBCA
:100BA00001100009009000994DF67410C0F6000085
:100BB000405C0199C8650098042807D3FFE70199B4
:100BC0000868042262F30900886506E00199086854
:100BD00040F2FF3290438865FFE70198806D02B0D4
:100BE0007047000086B0059000208DF8130005982E
:100BF000806A03900598806910BBFFE70398029014
:100C000003281BD80299DFE801F0020D02180598AD
:100C100090F82F00C00720B1FFE701208DF81300E6
:100C2000FFE70CE00598C06AB0F1C07F04D1FFE790
:100C300001208DF81300FFE701E000E0FFE745E049
:100C400005988069B0F5005F25D1FFE70398019012
:100C500003281ED80199DFE801F0020602110120E5
:100C60008DF8130016E0059890F82F00C00720B10A
:100C7000FFE701208DF81300FFE70BE00598C06A3D
:100C8000B0F1C07F04D1FFE701208DF81300FFE72A
:100C900000E0FFE719E003980090032804D3FFE782
:100CA0000098032804D00EE001208DF813000BE01B
:100CB000059890F82F00C00720B1FFE701208DF8BC
:100CC0001300FFE700E0FFE7FFE7FFE79DF81300F1
:100CD00006B0704784B0039002910192009303988C
:100CE0000168086820F4802008600098039909686A
:100CF000486003988068402809D1FFE7019803996C
:100D000009688860029803990968C86008E0029839
:100D1000039909688860019803990968C860FFE72A
:100D200004B0704784B00390029103980190029838
:100D30004008029040F67C70C2F2000090F8000C6F
:100D400000BBFFE740F67C70C2F20000B0F8041C64
:100D500001F5C071A0F8021CB0F8020CB0F5407F9C
:100D600008DBFFE740F67C71C2F200010020A1F829
:100D7000020CFFE740F67C71C2F20001012081F80D
:100D8000000CFFE700200090FFE7009802998842DE
:100D90002FD2FFE740F67C70C2F20000B0F8021CD0
:100DA00030F81110019A009B22F81310B0F8021CC1
:100DB00000EB4101B1F80016019A009B02EB4302DF
:100DC0005180B0F8021C0131A0F8021CB0F8020CEE
:100DD000B0F5407F08DBFFE740F67C71C2F200010E
:100DE0000020A1F8020CFFE7FFE700980230009016
:100DF000CBE704B07047000080B584B00390ADF835
:100E00000A100020ADF8080040F67C70C2F2000025
:100E100090F8000C10B3FFE740F67C71C2F20001BD
:100E2000B1F8040CADF80800B1F8020CB1F8041CDC
:100E3000884207DDFFE7BDF8080000F54070ADF817
:100E40000800FFE740F67C70C2F20000B0F8021C18
:100E5000BDF80800401AADF80800FFE7BDF808002B
:100E6000B0F5107F1DD9FFE740F67C70C2F200009C
:100E7000B0F8040C58B9FFE740F67C71C2F20001EB
:100E8000B1F8040C00F54070A1F8040CFFE740F63F
:100E90007C71C2F20001B1F8040C0138A1F8040C15
:100EA000FFE7BDF80800BF281BD8FFE740F67C70BD
:100EB000C2F20000B0F8041C0131A0F8041CB0F824
:100EC000040CB0F5407F0BDBFFE740F67C71C2F20B
:100ED0000001B1F8040CA0F54070A1F8040CFFE784
:100EE000FFE700200190FFE70198BDF80A10884253
:100EF0000ED2FFE70398019A00EB420130F812008E
:100F000049880CF007F9FFE7019802300190EBE700
:100F10000398BDF80A1000EB410131F8040C31F8D8
:100F2000021C0CF0F7F840F67C70C2F20000B0F83A
:100F3000040C58B9FFE740F67C71C2F20001B1F829
:100F4000040C00F54070A1F8040CFFE740F67C713A
:100F5000C2F20001B1F8040C0138A1F8040C04B08D
:100F600080BD000080B50CF02DF9FFF7D5FC1420F2
:100F7000FFF7AEFC80BD000081B000200090FFE7CD
:100F80000098000A022812D8FFE7009A41F6823141
:100F9000C2F20001002021F81200009A01EB420188
:100FA000A1F80006FFE7009801300090E8E701B0E3
:100FB0007047000082B00190ADF802100020ADF83B
:100FC0000000FFE7BDF80000BDF80210884233DAE8
:100FD000FFE741F68230C2F20000B0F8021C30F8A0
:100FE0001110019ABDF8003022F81310B0F8021C5D
:100FF00000EB4101B1F80016019ABDF8003002EB98
:1010000043025180B0F8021C0131A0F8021CB0F874
:10101000020CB0F5407F08DBFFE741F68231C2F2F7
:1010200000010020A1F8020CFFE7FFE7BDF8000077
:101030000230ADF80000C5E702B0704780B586B059
:10104000059004910598039004984008049041F697
:101050008230C2F2000090F8000C18BBFFE741F6A6
:101060008230C2F20000B0F8021C01F5C071A0F895
:10107000041CB0F8040CB0F5407F0BDBFFE741F631
:101080008231C2F20001B1F8040CA0F54070A1F861
:10109000040CFFE741F68231C2F20001012081F821
:1010A000000CFFE741F68231C2F20001B1F8040CF6
:1010B000ADF80A00B1F8020CB1F8041C884207DD53
:1010C000FFE7BDF80A0000F54070ADF80A00FFE741
:1010D00041F68230C2F20000B0F8021CBDF80A00EE
:1010E000401AADF80A00BDF80A00B0F5107F1DD90E
:1010F000FFE741F68230C2F20000B0F8040C58B9A4
:10110000FFE741F68231C2F20001B1F8040C00F5AC
:101110004070A1F8040CFFE741F68231C2F20001F1
:10112000B1F8040C0138A1F8040CFFE7BDF80A007F
:10113000BF281BD8FFE741F68230C2F20000B0F8AA
:10114000041C0131A0F8041CB0F8040CB0F5407F79
:101150000BDBFFE741F68231C2F20001B1F8040C6B
:10116000A0F54070A1F8040CFFE7FFE70020019014
:10117000FFE70198049988420ED2FFE70398019A8D
:1011800000EB420130F8120049880BF0EFFFFFE757
:10119000019802300190ECE70398049900EB4101BB
:1011A00031F8040C31F8021C0BF0E0FF41F68230FC
:1011B000C2F20000B0F8040C58B9FFE741F68231E2
:1011C000C2F20001B1F8040C00F54070A1F8040C63
:1011D000FFE741F68231C2F20001B1F8040C013898
:1011E000A1F8040C06B080BD81B08DF8030001B0F9
:1011F000704700007047000080B54FF4806000F039
:1012000039FE80BD80B54FF4007000F033FE80BD24
:1012100072B600BEFFE700BFFDE7000080B584B0F6
:1012200047F61020C1F6FF700068039047F61420BF
:10123000C1F6FF700068029047F61820C1F6FF70F3
:10124000006801900199039808440390039888B1BD
:10125000FFE7039840F2CC31C2F200010091023165
:10126000082206F0F3F9009902981231042206F0E0
:10127000EDF9FFE704B080BD81B0009001B0704788
:1012800085B00390029100200190FFE7039890F849
:101290003C00012804D1FFE702208DF8130007E18C
:1012A0000399012081F83C00FFE7FFE702980068FE
:1012B0000A281CD3FFE70298008800EB4000A0F149
:1012C0001E01072000FA01F203980168C8689043E4
:1012D000C86002998868098801EB41011E3900FA4B
:1012E00001F203980168C8681043C86018E00298CA
:1012F000008800EB4001072000FA01F20398016822
:1013000008699043086102998868098801EB4101E6
:1013100000FA01F203980168086910430861FFE7C9
:101320000298406806281BD8FFE70298406800EB47
:101330008000411F1F2000FA01F203980168486BEA
:101340009043486302990888496801EB8101053997
:1013500000FA01F203980168486B104348633DE0CE
:10136000029840680C281CD8FFE70298406800EB00
:101370008000A0F123011F2000FA01F20398016808
:10138000086B9043086302990888496801EB810162
:10139000233900FA01F203980168086B10430863CF
:1013A0001BE00298406800EB8000A0F141011F2083
:1013B00000FA01F203980168C86A9043C862029972
:1013C0000888496801EB8101413900FA01F203986C
:1013D0000168C86A1043C862FFE7FFE742F20030C5
:1013E000C4F2010000900398006842F20001C4F2C8
:1013F0000101884210D1FFE70298006812280BD142
:10140000FFE70099486820F40000486000994868A8
:1014100040F480004860FFE70398006842F2000152
:10142000C4F20101884239D1FFE702980068122115
:10143000C1F20001884205D0FFE702980068112838
:101440002CD1FFE70099486820F48000486000999B
:10145000486840F400004860029800681221C1F218
:101460000001884219D1FFE740F21C00C2F20000DF
:1014700000684DF68361C4F21B31A0FB0110800CA3
:1014800000EB800040000190FFE7019820B1FFE7EA
:10149000019801380190F8E7FFE7FFE7FFE70399BC
:1014A000002081F83C00FFE700208DF81300FFE7E3
:1014B0009DF8130005B0704781B0009001B07047EF
:1014C00081B0009001B0704780B586B005900020D3
:1014D00004900390059800680068029005980068E1
:1014E00040680190029800F002000490019800F01A
:1014F00020000390049800284AD0FFE703980028B2
:1015000046D0FFE70598006CC006002806D4FFE728
:101510000599086C40F400700864FFE705980068BE
:10152000806810F0405F2AD1FFE70598007E30BB4D
:10153000FFE705980068C06A10F4700F07D0FFE756
:101540000598006880684005002818D4FFE70598D2
:101550000168486820F0200048600599086C20F474
:10156000807008640598006CC004002806D4FFE76A
:101570000599086C40F001000864FFE7FFE7059853
:10158000FFF79AFF059801686FF012000860FFE707
:10159000029800F004000490019800F0800003908D
:1015A0000498002858D0FFE70398002854D0FFE79C
:1015B0000598006CC006002806D4FFE70599086C62
:1015C00040F400500864FFE705980068806810F454
:1015D000401F38D1FFE705980068806B10F4401F6A
:1015E00007D0FFE7059800688068400500282AD4E6
:1015F000FFE70598006840684005002823D4FFE70E
:1016000005980068806810F0405F1CD1FFE70598DE
:10161000007EC0B9FFE705980168486820F08000A7
:1016200048600599086C20F4805008640598006CA7
:10163000C005002806D4FFE70599086C40F00100BA
:101640000864FFE7FFE70598FFF716FE05980168B5
:101650006FF00C000860FFE7029800F001000490B2
:10166000019800F0400003900498C0B1FFE7039890
:10167000A8B1FFE7059800680068C00770B1FFE7F0
:101680000599086C40F480300864059800F07EF8F5
:10169000059801686FF001000860FFE7FFE7029816
:1016A00000F020000490019800F0806003900498FE
:1016B000B0B1FFE7039898B1FFE70599486C40F097
:1016C00002004864059801686FF0200000900860EF
:1016D0000598FFF7F5FE0098059909680860FFE78F
:1016E00006B080BD80B584B0029000208DF8070060
:1016F000029820B9FFE701208DF80F0042E0029820
:10170000806A0121C0F60071884201D0FFE7FFE73F
:101710000298006C50B9FFE7029800F03BF802997C
:1017200000204864029981F83C00FFE70298006CB1
:10173000C006002817D4FFE70298006C40F00200B2
:1017400020F48850029908640298FEF7F3FD02998C
:10175000002048640298006C40F0010020F0020074
:101760000299086403E001208DF80700FFE7FFE716
:101770000299002081F83C00FFE79DF807008DF8F2
:101780000F00FFE79DF80F0004B080BD81B000900E
:1017900001B0704780B58AB009900020089007908A
:1017A0000690059004900998006842F20001C4F286
:1017B0000101884239D1FFE7FFE70020039043F69B
:1017C0004400C4F20200016841F4807101600068C5
:1017D00000F4807003900398FFE7FFE70020029079
:1017E00043F63000C4F20200016841F001010160DB
:1017F000006800F0010002900298FFE704200490C6
:10180000032005900020009006900020C4F2020002
:1018100004A900F04BFB009A12200190114602F03F
:1018200099FA019802F08CFAFFE70AB080BD000037
:1018300080B586B005900020039040F21C00C2F2F3
:101840000000006848F2B511C1F64E31A0FB01104E
:10185000800A02900598806D0190019800680490BC
:1018600004980599C96DC840000700281AD5FFE7FC
:101870000598006800684007002812D5FFE7059822
:101880000168086820F0040008600598C16D082010
:101890008840019988600599486D40F001004865CD
:1018A000FFE7FFE704980599C96DC840C007A0B1DC
:1018B000FFE7059800684069000600280CD5FFE79F
:1018C0000598C16D01208840019988600599486D8F
:1018D00040F002004865FFE7FFE704980599C96DED
:1018E000C8404007002814D5FFE705980068006845
:1018F000800700280CD5FFE70598C16D04208840BB
:10190000019988600599486D40F004004865FFE73B
:10191000FFE704980599C96DC840C006002847D55F
:10192000FFE7059800680068000700283FD5FFE73B
:101930000598C16D1020884001998860059800685D
:101940000068400300281AD5FFE705980068006882
:101950000003002809D4FFE70598006C20B1FFE7D9
:101960000598016C8847FFE708E00598806C20B176
:10197000FFE70598816C8847FFE7FFE716E00598C9
:1019800000680068C005002807D4FFE705980168D3
:10199000086820F008000860FFE70598006C20B197
:1019A000FFE70598016C8847FFE7FFE7FFE7FFE7E0
:1019B00004980599C96DC8408006002840F18D80C3
:1019C000FFE7059800680068C006002840F18480A1
:1019D000FFE70598C16D202088400199886005982F
:1019E00090F83500052834D1FFE7059801680868AC
:1019F00020F01600086005980168486920F0800012
:101A000048610598006C20B9FFE70598806C38B1F3
:101A1000FFE705980168086820F008000860FFE704
:101A20000598C16D3F208840019988600599012083
:101A300081F83500FFE70599002081F83400FFE7C1
:101A40000598006D20B1FFE70598016D8847FFE715
:101A50007BE0059800680068400300281AD5FFE77E
:101A60000598006800680003002809D4FFE705987E
:101A7000406C20B1FFE70598416C8847FFE708E01C
:101A80000598C06B20B1FFE70598C16B8847FFE759
:101A9000FFE720E0059800680068C005002811D421
:101AA000FFE705980168086820F0100008600599B4
:101AB000012081F83500FFE70599002081F8340006
:101AC000FFE7FFE70598C06B20B1FFE70598C16B02
:101AD0008847FFE7FFE7FFE7FFE70598406DA0B302
:101AE000FFE70598406DC00730B3FFE70599052073
:101AF00081F8350005980168086820F00100086049
:101B0000FFE70398013003900299884201D9FFE76B
:101B100007E0FFE7059800680068C0070028F0D1DB
:101B2000FFE70599012081F83500FFE705990020BE
:101B300081F83400FFE7FFE70598C06C20B1FFE7AC
:101B40000598C16C8847FFE7FFE706B080BD00003D
:101B500080B586B004900020039000F089FB0290CD
:101B6000049820B9FFE701208DF81700A3E004983E
:101B7000406A08B1FFE7FFE70499022081F83500C9
:101B8000FFE70499002081F83400FFE7049801681A
:101B9000086820F001000860FFE70498006800680A
:101BA000C00790B1FFE700F063FB0299401A0628D6
:101BB0000AD3FFE70499202048650499032081F89F
:101BC00035008DF8170076E0E7E7049800680068B4
:101BD0000390039848F23F01CFF2100108400390B0
:101BE000049900914868D1F808C0CB680A6940EAB6
:101BF0000C00184310434A6910438A691043CA69AC
:101C00001043096A01430398084303900498406A0B
:101C1000042808D1FFE70499C86A096B01430398B7
:101C200008430390FFE70398049909680860049843
:101C3000006840690390039820F00700039004981F
:101C4000416A0398084303900498406A04281AD113
:101C5000FFE70498816A0398084303900498C06AD8
:101C600080B1FFE70498FEF7BDFF50B1FFE704998C
:101C7000402048650499012081F835008DF817004F
:101C800019E0FFE7FFE703980499096848610498A1
:101C9000FEF77CFF01900498C16D3F2088400199B8
:101CA0008860049900204865049A012182F8351063
:101CB0008DF81700FFE79DF8170006B080BD000003
:101CC00080B588B0069005910492039300208DF8AA
:101CD0000B000698806D0190FFE7069890F834009D
:101CE000012804D1FFE702208DF81F0045E0069986
:101CF000012081F83400FFE7FFE7069890F83500EF
:101D000001282BD1FFE70699022081F835000699BA
:101D10000020486506980599049A039BFEF7DAFFB0
:101D20000698C16D3F208840019988600698016837
:101D3000086840F0160008600698006C38B1FFE7AC
:101D400006980168086840F008000860FFE70698F8
:101D50000168086840F00100086009E0FFE70699A3
:101D6000002081F83400FFE702208DF80B00FFE728
:101D70009DF80B008DF81F00FFE79DF81F0008B0CD
:101D800080BD000080B584B0039000F071FA02902D
:101D9000039801900198013048B1FFE740F2EC3020
:101DA000C2F200000178019808440190FFE7FFE7C4
:101DB00000F05EFA0299401A0199884201D2FFE7C9
:101DC000F6E704B080BD000080B582B0ADF8060033
:101DD000BDF8060001460091B0F5007F05D0FFE791
:101DE0000098B0F5806F21D041E00020C4F20200DD
:101DF0004FF4007100F00CFAB0FA80F0410943F69C
:101E00005800C2F200004171407918B1FFE70BF0B1
:101E100071FB0AE043F66400C2F20000806943F6F9
:101E20005801C2F200018860FFE720E00020C4F200
:101E300002004FF4806100F0EBF9B0FA80F0410944
:101E400043F65800C2F200008171807918B1FFE7B3
:101E50000BF050FB0AE043F66400C2F20000806918
:101E600043F65801C2F200018860FFE7FFE702B0C5
:101E700080BD000080B582B0ADF8060043F6144086
:101E8000C4F201000068BDF8061008420CD0FFE75C
:101E9000BDF8060043F61441C4F201010860BDF824
:101EA0000600FFF791FFFFE702B080BD8BB00A90FC
:101EB000099100200790069005900890FFE7089888
:101EC0000F2800F2A281FFE70899012088400790BF
:101ED0000998006807990840069006980799884273
:101EE00040F08E81FFE70998406800F00300012868
:101EF00007D0FFE70998406800F0030002282FD1BF
:101F0000FFE70A988068059008984100032000FACE
:101F100001F10598884305900998C068089949001F
:101F200000FA01F105980843059005980A99886020
:101F30000A98406805900899012000FA01F1059877
:101F40008843059009984068C0F30010089900FA8A
:101F500001F105980843059005980A994860FFE744
:101F60000998406800F00300032818D0FFE70A989A
:101F7000C068059008984100032000FA01F1059817
:101F800088430590099880680899490000FA01F192
:101F900005980843059005980A99C860FFE70998D5
:101FA000406800F00300022826D1FFE70A9808994C
:101FB0006FF0030202EA51010844006A0590089894
:101FC00000F0070081000F2000FA01F10598884316
:101FD000059009980069089901F00701890000FA45
:101FE00001F105980843059005980A99089B02EAB3
:101FF000530211440862FFE70A98006805900898A8
:102000004100032000FA01F10598884305900998E2
:10201000406800F003000899490000FA01F10598B2
:102020000843059005980A99086009988079800707
:10203000002800F0E480FFE7FFE70020049043F66B
:102040004400C4F20200016841F48041016000686C
:1020500000F4804004900498FFE7089820F0030003
:1020600043F60801C4F2010140580590089800F0B9
:10207000030081000F2000FA01F1059888430590C4
:102080000A980021C4F20201884203D1FFE7002030
:10209000039034E00A9840F20041C4F20201884201
:1020A00003D1FFE70120029026E00A9840F60001E4
:1020B000C4F20201884203D1FFE70220019018E038
:1020C0000A9840F60041C4F20201884203D1FFE7BA
:1020D000032000900AE00A9941F20002C4F20202D1
:1020E0000720914208BF04200090FFE7009801906C
:1020F000FFE701980290FFE702980390FFE703983B
:10210000C0B2089901F00301890000FA01F10598B5
:10211000084305900598089921F0030143F6080249
:10212000C4F20102885043F60840C4F2010000687E
:102130000590069905988843059009988079C0060E
:10214000002805D5FFE70699059808430590FFE7A5
:10215000059843F60841C4F20101086043F60C40BB
:10216000C4F201000068059006990598884305901F
:10217000099880798006002805D5FFE7069905981B
:1021800008430590FFE7059843F60C41C4F20101AE
:10219000086043F60440C4F2010000680590069907
:1021A000059888430590099880798007002805D50F
:1021B000FFE70699059808430590FFE7059843F661
:1021C0000441C4F20101086043F60040C4F201007A
:1021D00000680590069905988843059009988079CC
:1021E000C00728B1FFE70699059808430590FFE767
:1021F000059843F60041C4F201010860FFE7FFE7DC
:10220000FFE708980130089059E60BB070470000CE
:1022100082B00190ADF8021001980069BDF802107B
:10222000084204D0FFE701208DF8010003E0002000
:102230008DF80100FFE79DF8010002B07047000033
:1022400082B00190ADF802108DF801209DF80100D8
:1022500028B1FFE7BDF802000199886105E0BDF8EB
:102260000200000401998861FFE702B07047000096
:1022700043F68400C2F200000068704781B000900D
:102280000098006C01B0704780B58EB00C900C982F
:1022900020B9FFE701208DF8370043E10C9890F852
:1022A0003D0040B9FFE70C99002081F83C000C98F4
:1022B00000F0AEFEFFE70C99242081F83D000C9859
:1022C0000168086820F0010008600C98016808683F
:1022D00040F4004008600C980168086820F4004051
:1022E000086003F0B9F90A900C98406848F2A061C0
:1022F000C0F2010188420BD8FFE70A9948F28042F8
:10230000C0F21E020020914238BF012009900AE06D
:102310000A9940F60012C0F23D020020914238BFF7
:1023200001200990FFE70998012804D1FFE7012067
:102330008DF83700F6E00A984DF68361C4F21B3140
:10234000A0FB0110800C0B900C980068406820F0F6
:102350003F000B9908430C99096848600C98006885
:10236000006A20F03F0008900C98406848F2A06195
:10237000C0F20101884204D8FFE70B9801300790B2
:102380000EE00B984FF49671484344F6D351C1F2D6
:102390006201A0FB0101012000EB91100790FFE713
:1023A0000898079908430C99096808620C98006816
:1023B000C0694CF6FF71884306900C98406848F25B
:1023C000A061C0F2010188421FD8FFE70A980138D6
:1023D0000C9949684900B0FBF1F001306FF31F30F0
:1023E000032803D8FFE7042005900BE00A98013882
:1023F0000C9949684900B0FBF1F001306FF31F30D0
:102400000590FFE7059804904CE00C98806868B947
:10241000FFE70A9801380C99496801EB4101B0FBCC
:10242000F1F001306FF31F3003900DE00A9801388E
:102430000C99496819225143B0FBF1F00130042195
:1024400061F31F300390FFE70398000518B9FFE719
:102450000120029023E00C98806868B9FFE70A9891
:1024600001380C99496801EB4101B0FBF1F00130F2
:102470006FF31F3001900DE00A9801380C994968FC
:1024800019225143B0FBF1F00130042161F31F30F8
:102490000190FFE7019840F400400290FFE70298A6
:1024A0000490FFE70698049908430C990968C861ED
:1024B0000C980068006820F0C0000C9B1968DA696D
:1024C0001B6A1A43104308600C980068806848F241
:1024D000FF3188430C9A1168D36812691A4310437C
:1024E00088600C980068C06820F0FF000C9B196899
:1024F0005A699B691A431043C8600C9801680868C0
:1025000040F0010008600C99002008640C9A20211A
:1025100082F83D100C9908630C9981F83E008DF803
:102520003700FFE79DF837000EB080BD80B58CB056
:102530000A90ADF8261008920793FFF799FE0690CF
:10254000002005900A9890F83D00202840F02D8149
:10255000FFE70A9806996A4611600221C0F210014D
:102560000122192304F024FC20B1FFE702208DF89A
:102570002F001EE1FFE70A9890F83C00012804D1E3
:10258000FFE702208DF82F0013E10A99012081F85E
:102590003C00FFE7FFE70A980068006800F00100D0
:1025A000012807D0FFE70A980168086840F0010099
:1025B0000860FFE70A980168086820F40060086076
:1025C0000A99242081F83D000A99002008640A999C
:1025D0000020CFF6FF70C862FFE70A98016808681C
:1025E00040F4807008600A98079B06996A4611605B
:1025F0004FF00111002204F0DBFB80B1FFE70A98E5
:1026000000680068C005002805D5FFE70A994FF467
:1026100000700864FFE703208DF82F00C9E0BDF8C3
:10262000260000F0FE000A9909680861FFF720FE05
:1026300006900A9800684069C0F340008DF81300C6
:102640000A9800684069C0F380208DF81200FFE707
:102650000A9890F83D100020A02902900DD0FFE7C5
:102660009DF813100020029039B9FFE79DF8120081
:10267000B0FA80F040090290FFE70298C007F8B175
:10268000FFE7FFF7F5FD0699401A0799884203D83E
:10269000FFE7079828B9FFE70A99A02081F83D00D5
:1026A000FFE70A9800684069C0F340008DF8130006
:1026B0000A9800684069C0F380208DF81200C7E7CF
:1026C0000A99202081F83D000A980068406900F0CE
:1026D00002010120B0EB510F32D1FFE70A980168E7
:1026E000086840F400700860FFE7002003900A9833
:1026F0000068406903900A98006880690390039815
:10270000FFE70A9806996A4611600221C0F210019B
:102710000122192304F04CFB20B1FFE701208DF8C2
:102720002F0046E00A99202081F83D00FFE70A9932
:10273000002081F83C00FFE700208DF82F0038E0F2
:102740000A980168086840F4007008600A980168F7
:102750006FF4806048610A9806996A461160022108
:10276000C0F210010122192304F022FB20B1FFE77F
:1027700001208DF82F001CE0FFE70598013005903F
:10278000FFE7059808998842FFF427AFFFE70A9909
:10279000202081F83D00FFE70A99002081F83C00E5
:1027A000FFE701208DF82F0003E002208DF82F00B5
:1027B000FFE79DF82F000CB080BD000080B58CB005
:1027C000DDF838C00A90ADF826100892ADF81E303A
:1027D000FFF74EFD06900A9890F83D00202840F043
:1027E000FE81FFE70A9806996A4611600221C0F24D
:1027F00010010122192304F0DBFA20B1FFE70220C7
:102800008DF82F00EFE1FFE70A9890F83C000128CF
:1028100004D1FFE702208DF82F00E4E10A9901209E
:1028200081F83C00FFE7FFE70A980068006800F0C5
:102830000100012807D0FFE70A980168086840F006
:1028400001000860FFE70A980168086820F400604A
:1028500008600A99222081F83D000A99102081F829
:102860003E000A990020086408980A994862BDF859
:102870001E000A9948850A98408D0A9908850A9988
:102880000020CFF6FF70C8620A98BDF826100E9A95
:10289000069B04F039F820B1FFE701208DF82F00E6
:1028A000A1E10A98008DA0B9FFE7FFE7002005909D
:1028B0000A980068406905900A9800688069059048
:1028C0000598FFE70A980168086840F400700860FE
:1028D00053E00A98008D01281AD1FFE70A98016891
:1028E000086820F480600860FFE7002004900A98E0
:1028F0000068406904900A98006880690490049810
:10290000FFE70A980168086840F40070086033E047
:102910000A98008D02281AD1FFE70A980168086812
:1029200020F4806008600A980168086840F400603C
:102930000860FFE7002003900A9800684069039050
:102940000A980068806903900398FFE713E00A98EB
:102950000168086840F480600860FFE7002002908A
:102960000A980068406902900A980068806902909D
:102970000298FFE7FFE7FFE7FFE7FFE70A98008D10
:10298000002800F01A81FFE70A98008D032800F262
:10299000CC80FFE70A98008D01281ED1FFE70A9836
:1029A0000E99069A04F032FB20B1FFE701208DF862
:1029B0002F0018E10A98006800690A99496A0870AE
:1029C0000A99486A013048620A99088D01380885D9
:1029D0000A99488D01384885A6E00A98008D02289A
:1029E0003CD1FFE70A980E9B06996A4611600421C4
:1029F000C0F20101002204F0DBF920B1FFE7012061
:102A00008DF82F00EFE00A980168086840F4007024
:102A100008600A98006800690A99496A08700A996A
:102A2000486A013048620A99088D013808850A9978
:102A3000488D013848850A98006800690A99496AF2
:102A400008700A99486A013048620A99088D01386D
:102A500008850A99488D0138488564E00A980E9BDC
:102A600006996A4611600421C0F20101002204F0B7
:102A70009FF920B1FFE701208DF82F00B3E00A98FD
:102A80000168086820F4806008600A98006800699E
:102A90000A99496A08700A99486A013048620A9995
:102AA000088D013808850A99488D013848850A98AB
:102AB0000E9B06996A4611600421C0F201010022B2
:102AC00004F076F920B1FFE701208DF82F008AE0AD
:102AD0000A980168086840F4007008600A98006865
:102AE00000690A99496A08700A99486A013048627F
:102AF0000A99088D013808850A99488D013848855A
:102B00000A98006800690A99496A08700A99486A2F
:102B1000013048620A99088D013808850A99488D64
:102B200001384885FFE7FFE746E00A980E99069AC4
:102B300004F06CFA20B1FFE701208DF82F0052E07D
:102B40000A98006800690A99496A08700A99486AEF
:102B5000013048620A99088D013808850A99488D24
:102B6000013848850A980068406900F00401012096
:102B7000B0EB910F1FD1FFE70A98008D032807D112
:102B8000FFE70A980168086820F480600860FFE7A2
:102B90000A98006800690A99496A08700A99486A9F
:102BA000013048620A99088D013808850A99488DD4
:102BB00001384885FFE7FFE7E0E60A99202081F821
:102BC0003D000A99002081F83E00FFE70A990020A5
:102BD00081F83C00FFE700208DF82F0003E0022081
:102BE0008DF82F00FFE79DF82F000CB080BD00008E
:102BF00080B588B0DDF828C00690ADF816100492B4
:102C0000ADF80E30FFF734FB0290069890F83D00C7
:102C1000202840F0EB80FFE7069802996A46116091
:102C20000221C0F210010122192304F0C1F820B1E1
:102C3000FFE702208DF81F00DCE0FFE7069890F820
:102C40003C00012804D1FFE702208DF81F00D1E0ED
:102C50000699012081F83C00FFE7FFE7069800682D
:102C6000006800F00100012807D0FFE7069801681E
:102C7000086840F001000860FFE7069801680868EE
:102C800020F4006008600699212081F83D00069933
:102C9000102081F83E0006990020086404980699E7
:102CA0004862BDF80E00069948850698408D069941
:102CB000088506990020CFF6FF70C8620698BDF817
:102CC00016100A9A029B03F0F5FE20B1FFE70120DF
:102CD0008DF81F008EE0FFE7002001900698006845
:102CE0004069019006980068806901900198FFE7AB
:102CF000FFE70698008D002860D0FFE706980A9944
:102D0000029A04F0F1F980B1FFE70698006C0428FC
:102D100007D1FFE706980168086840F40070086072
:102D2000FFE701208DF81F0064E006980168406A03
:102D3000007808610699486A013048620699488D12
:102D4000013848850699088D01380885069800687D
:102D5000406900F004010120B0EB910F16D1FFE7AC
:102D60000698008D90B1FFE706980168406A0078E8
:102D700008610699486A013048620699488D013811
:102D800048850699088D01380885FFE706980A9955
:102D9000029A03F0B7FF80B1FFE70698006C0428A1
:102DA00007D1FFE706980168086840F400700860E2
:102DB000FFE701208DF81F001CE09AE706980168E4
:102DC000086840F4007008600699202081F83D00F2
:102DD0000699002081F83E00FFE70699002081F85F
:102DE0003C00FFE700208DF81F0003E002208DF873
:102DF0001F00FFE79DF81F0008B080BD10B588B028
:102E000084460C980B98DDF828E0CDF818C0ADF892
:102E10001610ADF81420ADF81230ADF81000FFF721
:102E200027FA0390069890F83D00202840F0E880AB
:102E3000FFE7069803996A4611600221C0F210016B
:102E40000122192303F0B4FF20B1FFE702208DF81F
:102E50001F00D9E0FFE7069890F83C00012804D154
:102E6000FFE702208DF81F00CEE00699012081F8CF
:102E70003C00FFE7FFE706980068006800F00100EB
:102E8000012807D0FFE706980168086840F00100B4
:102E90000860FFE706980168086820F40060086091
:102EA0000699212081F83D000699402081F83E00D6
:102EB0000699002008640A9806994862BDF8100037
:102EC000069948850698408D069908850699002040
:102ED000CFF6FF70C8620698BDF81610BDF8142032
:102EE000BDF81230DDF830C0039CEE46CEF8044049
:102EF000CEF800C003F068FE20B1FFE701208DF896
:102F00001F0081E0FFE70698008D002849D0FFE709
:102F100006980C99039A04F0E7F880B1FFE7069849
:102F2000006C042807D1FFE706980168086840F4A0
:102F300000700860FFE701208DF81F0064E006982C
:102F40000168406A007808610699486A0130486261
:102F50000699088D013808850699488D01384885FD
:102F600006980068406900F004010120B0EB910F61
:102F700016D1FFE70698008D90B1FFE7069801682B
:102F8000406A007808610699486A013048620699EB
:102F9000088D013808850699488D01384885FFE776
:102FA000B1E706980C99039A03F0ACFE80B1FFE7F5
:102FB0000698006C042807D1FFE7069801680868A6
:102FC00040F400700860FFE701208DF81F001BE04F
:102FD00006980168086840F400700860069920208F
:102FE00081F83D000699002081F83E00FFE7069930
:102FF000002081F83C00FFE700208DF81F0003E06F
:1030000002208DF81F00FFE79DF81F0008B010BDDB
:1030100080B590B00F9000200E900D900C900B900A
:103020000A900F98006845F20041C4F200018842FE
:1030300035D1FFE7FFE70020099043F63000C4F2E6
:103040000200016841F002010160006800F0020026
:1030500009900998FFE74FF440700A9012200B90F6
:1030600000200C9003200D9004200E9040F20040B0
:10307000C4F202000AA9FEF719FFFFE7002008903A
:1030800043F64000C4F20200016841F400110160FF
:10309000006800F4001008900898FFE765E00F98BA
:1030A000006845F60041C4F2000188425CD1FFE7A8
:1030B000FFE70020079043F63000C4F202000168E9
:1030C00041F001010160006800F0010007900798DD
:1030D000FFE7FFE70020069043F63000C4F202004D
:1030E000016841F002010160006800F002000690F2
:1030F0000698FFE74FF480700A90122001900B9021
:10310000002002900C90032003900D9004200E905C
:103110000020C4F202000AA90491FEF7C7FE019B39
:10312000029A039804994FF0100CCDF828C00B9325
:103130000C920D9009200E9040F20040C4F2020063
:10314000FEF7B4FEFFE70020059043F64000C4F20E
:103150000200016841F400010160006800F4000011
:1031600005900598FFE7FFE7FFE710B080BD00007E
:1031700080B588B007900798006880680690079827
:10318000016843F60002C4F2000244F20800C4F2EF
:103190000000914204BF43F20840C4F200000068FE
:1031A000059007980068406804900798016844F209
:1031B0000400C4F20000914204BF43F20440C4F290
:1031C00000000068039007984068B0F5007F06D0C3
:1031D000FFE707984068002840F09580FFE70698D1
:1031E0008007002809D5FFE704980006002804D5C9
:1031F000FFE7079804F03AF8FFE70598C00748B1E1
:10320000FFE703984006002804D5FFE7079803F07E
:10321000E7FFFFE705984006002839D5FFE7039848
:103220008006002834D5FFE70798006843F60002BF
:10323000C4F2000244F20401C4F20001904204BF4F
:1032400043F20441C4F20001086820F06000086005
:1032500007980168486820F0A0004860FFE7002058
:10326000029007980068C06802900798006880681C
:1032700002900298FFE70799012081F84100079921
:10328000486C40F002004864079800F079FAFFE7C4
:1032900006980007002835D5FFE704988006002827
:1032A00030D5FFE707980168486820F0A000486023
:1032B0000798006843F60002C4F2000244F20401D9
:1032C000C4F20001904204BF43F20441C4F2000181
:1032D000086820F060000860FFE700200190079870
:1032E0000068806801900198FFE70799012081F844
:1032F00041000799486C40F004004864079800F0CA
:103300003FFAFFE77FE005988007002809D5FFE72F
:1033100003980006002804D5FFE7079803F0CEFFC6
:10332000FFE70698C00748B1FFE704984006002869
:1033300004D5FFE7079803F02BFFFFE70698400648
:1033400000282DD5FFE704988006002828D5FFE740
:1033500007980168486820F0600048600798006896
:1033600043F60002C4F2000244F20401C4F2000178
:10337000904204BF43F20441C4F20001086820F007
:10338000A000086007994FF0010081F841000799FB
:10339000486C40F002004864079800F0F1F9FFE73C
:1033A0000598000700282DD5FFE703988006002820
:1033B00028D5FFE70798006843F60002C4F2000230
:1033C00044F20401C4F20001904204BF43F20441FC
:1033D000C4F20001086820F0A000086007980168A6
:1033E000486820F06000486007994FF0010081F8BC
:1033F00041000799486C40F004004864079800F0C9
:10340000BFF9FFE7FFE708B080BD000080B58CB0D2
:103410000A9009910892ADF81E30002006900590A0
:103420008DF813000A9890F84100012804D0FFE7B6
:1034300002208DF8130069E1099838B1FFE7089878
:1034400020B1FFE7BDF81E0020B9FFE701208DF88D
:103450002F0066E1FFE70A9890F84000012804D1A8
:10346000FFE702208DF82F005BE10A99012081F827
:103470004000FFE7FFE709980A99486208980A990F
:10348000C8620A980068C06900F0070005900598B6
:10349000032804D0FFE70598052815D1FFE7BDF8FC
:1034A0001E0040000A990885BDF81E0040000A99D8
:1034B0004885BDF81E0040000A990886BDF81E0028
:1034C00040000A99488610E0BDF81E000A99088558
:1034D000BDF81E000A994885BDF81E000A990886A5
:1034E000BDF81E000A994886FFE70A98002141644A
:1034F0000A9A052082F841000A98C26B47F275408B
:10350000C0F6000010640A98C26B47F24930C0F65A
:103510000000D0630A98C26B47F20940C0F6000071
:10352000D0640A9A926B11640A9A926BD1630A99D9
:10353000896BC8640A980068C06900F440700590FF
:103540000598B0F5007F04D0FFE70598002862D108
:10355000FFE708A806900A9B1A68D86B43F6000C90
:10356000C4F2000CCDF808C044F20C01C4F2000112
:10357000624504BF43F20C41C4F20001069A12688E
:103580001B8EFEF79DFB029A0A98006844F2040124
:10359000C4F20001904204BF43F20441C4F20001AE
:1035A000086840F00100086009A806900A9B1A68A4
:1035B000986B0699096802F10C021B8DFEF780FBDF
:1035C0000A980168486840F0020048600A9800685C
:1035D000C06900F48060B0F5806F1BD0FFE70A98E7
:1035E000006843F60002C4F2000244F21C01C4F277
:1035F0000001904204BF43F21C41C4F2000108687C
:1036000040F4806008600A980168C86940F48060EE
:10361000C861FFE779E00A980068C06900F440706B
:10362000B0F5407F0ED1FFE7FFE7002003900A9836
:103630000068C06803900A98006880680390039847
:10364000FFE7FFE709A806900A9BD3F800C0986B34
:103650000699096843F6000EC4F2000ECDF804E0A6
:1036600044F20C02C4F20002F44504BF43F20C42DF
:10367000C4F200021B8DFEF723FB019A0A98006832
:1036800044F20401C4F20001904204BF43F2044139
:10369000C4F20001086840F00200086008A8069023
:1036A0000A9B1968D86B01F10C01069A12681B8EEF
:1036B000FEF706FB0A980168486840F00100486080
:1036C0000A980068C06900F48060B0F5806F1BD074
:1036D000FFE70A98006843F60002C4F2000244F2D1
:1036E0001C01C4F20001904204BF43F21C41C4F229
:1036F0000001086840F4806008600A980168C869A1
:1037000040F48060C861FFE7FFE7FFE7FFE70A9941
:10371000002081F84000FFE79DF813008DF82F008E
:10372000FFE79DF82F000CB080BD000080B584B08D
:10373000039043F25420C2F20000019000F5906023
:10374000C0210291FDF736FC0198029900F5C07086
:10375000FDF752FB04B080BD80B584B0039043F206
:103760005420C2F20000019000F54070C021029187
:10377000FDF720FC01980299FDF73EFB04B080BDE7
:1037800081B0009001B0704780B588B0069006986F
:1037900020B9FFE701208DF81F003AE1069890F864
:1037A000410070B9FFE70699002081F840000699B2
:1037B00047F28D40C0F600004863069800F02EF9ED
:1037C000FFE70699022081F8410006990A68D1694D
:1037D00040F6BF739943D16106990968086206985B
:1037E0004069022864D0FFE70698C06818B9FFE76F
:1037F0001020039002E020200390FFE706988068E5
:10380000202804D8FFE7039840000390FFE7012039
:1038100001F05CFC019006980069B0F5007F23D1AF
:10382000FFE70698C06878B1FFE70198039989001F
:10383000B0FBF1F000EB8000400006994969B0FB55
:10384000F1F0053002900EE001980399C900B0FB39
:10385000F1F000EB8000400006994969B0FBF1F0FF
:1038600005300290FFE70DE001980399B0FBF1F0FD
:1038700000EB8000400006994969B0FBF1F005308B
:103880000290FFE702984CF6CD41CCF6CC41A0FB6C
:103890000110C0080290029800F001000490029804
:1038A0000499401A4008059004980002049004E02E
:1038B0000220059000200490FFE70598022805D318
:1038C000FFE70598B0F5807F09D3FFE70699486CBC
:1038D00040F01000486401208DF81F0099E0059821
:1038E000049A069B19681B691A43104308620698DC
:1038F0000068C06940F6BF7120EA0102069B1968A2
:103900005868D3F808E0D3F80CC040EA0E0040EA4B
:103910000C009B691843104340F40060C86106988E
:10392000006A01286BD1FFE7069943F27110C0F6D7
:10393000000048630698016843F60002C4F20002E2
:1039400044F21C00C4F200009142034604BF43F25B
:103950001C43C4F20003196840F6BF7C21EA0C0145
:1039600019600699096844F22003C4F200039142E9
:1039700004BF43F22043C4F200034FF00201196078
:1039800006990968914204BF43F21C40C4F200004A
:103990000068ADF8020006984068B0F5007F04D0DA
:1039A000FFE70698406820B9FFE74FF48070029067
:1039B00002E000200290FFE7029806998B68CA682F
:1039C0008969184310430843BDF80210084340F4C6
:1039D0000060ADF80200BDF8020006990A6843F6DF
:1039E0000003C4F2000344F21C01C4F200019A4235
:1039F00004BF43F21C41C4F200010860FFE70699CE
:103A000000204864069A012182F841108DF81F00B9
:103A1000FFE79DF81F0008B080BD000080B598B09A
:103A20001790002008901690159014901390129003
:103A3000119010900F900E900D900C9017980068B8
:103A400043F60001C4F20001884240F0E680FFE73F
:103A500001200C9080200E9010200D9002200F90DD
:103A60000CA801F095FB18B1FFE7FDF7D1FBFFE7CC
:103A7000FFE700200B9043F64000C4F2020001680B
:103A800041F480410160006800F480400B900B9885
:103A9000FFE7FFE700200A9043F63000C4F202007F
:103AA000016841F001010160006800F001000A9026
:103AB0000A98FFE7FFE70020099043F63000C4F2C0
:103AC0000200016841F002010160006800F002009C
:103AD00009900998FFE7402012900220029013906D
:103AE0000020069014901590062003901690002058
:103AF000C4F2020012A90591FEF7D8F9029A0599BD
:103B000006984FF4304312931392149015900520A9
:103B1000169040F20040C4F202000490FEF7C6F98D
:103B2000DDF808C0039A04980599069B4FF4804E6F
:103B3000CDF848E0CDF84CC0149315931692FEF7DB
:103B4000B5F9069942F6A020C2F20000079046F2AD
:103B50005802C4F2020202604FF0C062426081600B
:103B6000C1604FF4806202614FF4006242614FF421
:103B7000005282614FF48072C2610162042242628B
:103B8000032282624FF08072C2620163FDF7E0FFA0
:103B900018B1FFE7FDF73CFBFFE7FFE7179842F698
:103BA000A021C2F20001C16317988863FFE742F6C3
:103BB0006030C2F20000019046F27001C4F20201CE
:103BC00001600021416040228260C1604FF4806248
:103BD00002614FF4006242614FF4005282614FF47F
:103BE0008072C261016204224262032282624FF04B
:103BF0008072C2620163FDF7ABFF18B1FFE7FDF70A
:103C000007FBFFE7FFE7179842F66031C2F20001B9
:103C1000816317988863FFE7FFE718B080BD000055
:103C200081B0009001B0704781B0009001B0704742
:103C300040F2EC30C2F20000027843F68401C2F296
:103C400000010868104408607047000080B543F622
:103C50000041C4F20201086840F40070086008687E
:103C600040F480600860086840F4807008600320B9
:103C700000F08AF80F2000F005F800F03BF8002073
:103C800080BD000080B582B0009040F21C00C2F2FE
:103C90000000006840F2EC31C2F200010A784FF4F3
:103CA0007A71B1FBF2F1B0FBF1F002F0F7FB20B159
:103CB000FFE701208DF8070018E000980F280DD8C5
:103CC000FFE700994FF0FF30002200F043F8009822
:103CD00040F2F031C2F20001086003E001208DF8EB
:103CE000070003E000208DF80700FFE79DF80700BC
:103CF00002B080BD82B0FFE70020019043F644008F
:103D0000C4F20200016841F480410160006800F4DF
:103D1000804001900198FFE7FFE70020009043F604
:103D20004000C4F20200016841F080510160006867
:103D300000F0805000900098FFE702B0704700004C
:103D400080B582B08DF807009DF9070008F0DCFD12
:103D500002B080BD80B586B08DF817000491039243
:103D60000020029008F0E8FD02909DF917000190F4
:103D700002980499039A03F085FF0146019808F020
:103D8000E3FD06B080BD000080B582B001900198CF
:103D900008F0FCFD02B080BD82B001908DF80310E8
:103DA00002B0704782B00190ADF80210BDF8020079
:103DB000019909684862002002B0704784B00390FE
:103DC0008DF80B10ADF8082003980068406A009049
:103DD0009DF80B0048B9FFE7BDF80810009840EACD
:103DE000014003990968886233E003980068816A9A
:103DF000009800EB1140009000208DF80700FFE7CD
:103E00009DF807009DF80B100139884213D2FFE797
:103E1000039800689DF8071000EB8100D0F80411AA
:103E2000009800EB11400090FFE79DF8070001307B
:103E30008DF80700E4E7BDF80810009840EA01405B
:103E4000039909689DF80B2001EB8201C1F800017C
:103E5000FFE7002004B0704780B582B00190019860
:103E6000D0F8E00406F0F6FB02B080BD80B582B069
:103E700001908DF80310019AD2F8E0049DF8031028
:103E800001EBC10302EB8302126A06F0C1FA02B031
:103E900080BD000080B582B001908DF80310019ABA
:103EA000D2F8E0049DF8031001EBC10302EB83029A
:103EB000D2F8602206F052FB02B080BD80B582B01D
:103EC00001900198D0F8E00406F0CAFB02B080BD72
:103ED00080B584B003908DF80B109DF80B000006A0
:103EE00000280CD5FFE703989DF80B1001F00F0197
:103EF00001EBC10100EB8100143001900CE003984C
:103F00009DF80B1001F00F0101EBC10100EB8100E6
:103F100000F515700190FFE703980068019908F01B
:103F200073F88DF80A009DF80A0004B080BD000007
:103F300080B584B002908DF807109DF80700000648
:103F400000280FD5FFE702989DF8071001F00F0138
:103F500001EBC10100EB81001430009000990120B9
:103F600048700FE002989DF8071001F00F0101EB77
:103F7000C10100EB810000F5157000900099002050
:103F80004870FFE79DF8070000F00F0000990870E7
:103F9000FFE7029890F89404012804D1FFE702207B
:103FA0008DF80F0014E00299012081F89404FFE7D6
:103FB000FFE702980068009907F01EFBFFE70299EF
:103FC000002081F89404FFE700208DF80F00FFE740
:103FD0009DF80F0004B080BD80B584B002908DF8CC
:103FE00007109DF8070000F00F0002990979884238
:103FF00004D9FFE701208DF80F004DE09DF8070080
:10400000000600280FD5FFE702989DF8071001F081
:104010000F0101EBC10100EB810014300090009909
:10402000012048700FE002989DF8071001F00F0181
:1040300001EBC10100EB810000F5157000900099C3
:1040400000204870FFE70099002088709DF8070065
:1040500000F00F0000990870FFE7029890F89404B0
:10406000012804D1FFE702208DF80F0014E0029927
:10407000012081F89404FFE7FFE7029800680099A7
:1040800007F02AFDFFE70299002081F89404FFE77A
:1040900000208DF80F00FFE79DF80F0004B080BDF1
:1040A00080B584B002908DF80710FFE7029890F871
:1040B0009404012804D1FFE702208DF80F0023E0CB
:1040C0000299012081F89404FFE7FFE79DF80700BB
:1040D0000006002809D5FFE7029800689DF8071040
:1040E00001F00F0108F062F804E00298006808F09F
:1040F00023F8FFE7FFE70299002081F89404FFE727
:1041000000208DF80F00FFE79DF80F0004B080BD80
:1041100082B001908DF8031001989DF8031001F012
:104120000F0101EBC10100EB8100D0F8680202B081
:104130007047000080B586B004908DF80F10ADF880
:104140000C208DF80B3000208DF80A009DF80F0030
:10415000000600280FD5FFE704989DF80F1001F026
:104160000F0101EBC10100EB8100143001900199B6
:10417000012048700FE004989DF80F1001F00F0126
:1041800001EBC10100EB810000F515700190019970
:1041900000204870FFE79DF80F0000F00F00019924
:1041A0000870BDF80C00019988609DF80B0001991A
:1041B00008710198407820B1FFE701990878488399
:1041C000FFE79DF80B00022804D1FFE701990020CA
:1041D0004871FFE7FFE7049890F89404012804D1A0
:1041E000FFE702208DF8170015E00499012081F8FF
:1041F0009404FFE7FFE704980068019907F0CEF800
:10420000FFE70499002081F89404FFE79DF80A0075
:104210008DF81700FFE79DF8170006B080BD00007D
:1042200080B586B005908DF813100392029305981F
:104230009DF8131001F00F0101EBC10100EB8100AB
:1042400000F51570019003980199C86002980199D2
:104250000861019900204861019948709DF8130098
:1042600000F00F000199087005988079012804D1A9
:10427000FFE703980199C861FFE7059A1068019963
:10428000927907F0CDFC002006B080BD80B584B0E7
:1042900002908DF807109DF8070000F00F000299BA
:1042A0000979884204D9FFE701208DF80F0058E012
:1042B0009DF80700000600280FD5FFE702989DF83B
:1042C000071001F00F0101EBC10100EB8100143078
:1042D00000900099012048700DE002989DF80710A9
:1042E00001EBC10100EB810000F515700090009911
:1042F00000204870FFE70099012088709DF80700B2
:1043000000F00F0000990870FFE7029890F89404FD
:10431000012804D1FFE702208DF80F0021E0029967
:10432000012081F89404FFE7FFE7029800680099F4
:1043300007F022FC9DF80700000740B9FFE7029A4A
:104340001068917902F29C4207F076FBFFE7FFE7E5
:104350000299002081F89404FFE700208DF80F00F7
:10436000FFE79DF80F0004B080BD000080B586B067
:1043700005908DF813100392029305989DF8131081
:1043800001F00F0101EBC10100EB8100143001903D
:1043900003980199C8600298019908610199002069
:1043A00048610199012048709DF8130000F00F004A
:1043B0000199087005988079012804D1FFE70398D6
:1043C0000199C861FFE7059A10680199927907F091
:1043D00027FC002006B080BD80B58CB00B900B98F8
:1043E00000680A900A9809900B98006807F042FF4D
:1043F000002840F00B84FFE70B98006807F0A6FF49
:1044000010B9FFE700F002BC0998D0F80808C0F323
:104410000D200B99C1F8D4040B98006807F096FFA3
:104420008007002807D5FFE70B980168486900F06E
:1044300002004861FFE70B98006807F087FFC0069D
:10444000002862D5FFE70B980168886920F010000A
:1044500088610A98006A02900B98029901F00F0196
:1044600001EBC10100EB810000F515700890029886
:1044700000F4F0110220B0EB514F23D1FFE7BDF85B
:10448000080047F6F07108421BD0FFE70A98089928
:10449000C968029AC2F30A1207F066FF029847F64B
:1044A000F07100EA0103089AD06800EB1310D060A5
:1044B000029800EA01020899486900EB121048616D
:1044C000FFE71BE0029800F4F0110620B0EB514F1B
:1044D00012D1FFE70A980B9901F29C41082207F0DC
:1044E00043FF029847F6F07100EA01020899486913
:1044F00000EB1210486100E0FFE7FFE70B9801684E
:10450000886940F010008861FFE70B98006807F0A9
:104510001DFF0003002840F1A680FFE70020049063
:104520000B98006807F0C0FE0690FFE70698002889
:1045300000F09880FFE79DF81800C007002800F001
:104540008A80FFE70B9800689DF8101007F0E6FEE0
:1045500005909DF81400C00760B1FFE70998049921
:1045600000EB41110120C1F8080B0B98049903F0EE
:104570000DFCFFE79DF81400000700280CD5FFE7AD
:104580000998049900EB41110820C1F8080B0B9819
:10459000049903F0B5FBFFE79DF81400C00600285E
:1045A00008D5FFE70998049900EB41111020C1F8E4
:1045B000080BFFE79DF81400800700282DD5FFE7C2
:1045C0000A9840690006002808D5FFE70999D1F844
:1045D000040840F48060C1F80408FFE70B980499D0
:1045E00001EBC10100EB810000F5157008900898FF
:1045F000C078012809D1FFE708990020C8700B98FE
:104600009DF8101000F012FBFFE70998049900EBE9
:1046100041110220C1F8080BFFE79DF81400800645
:10462000002808D5FFE70998049900EB41112020E4
:10463000C1F8080BFFE79DF815008006002809D592
:10464000FFE70998049900EB41114FF40050C1F8BD
:10465000080BFFE7FFE70498013004900698400834
:10466000069063E7FFE70B98006807F06FFE4003D2
:10467000002840F1C680FFE70B98006807F002FEB3
:10468000069000200490FFE70698002800F0B8800C
:10469000FFE79DF81800C007002800F0AA80FFE798
:1046A0000B9800689DF8101007F010FE05909DF81B
:1046B0001400C00700283ED0FFE7049800F00F0167
:1046C000012000FA01F10391039B099AD2F83418F2
:1046D0009943C2F834180999049A01EB4211C1F8C0
:1046E00008090B98807901281FD1FFE70B980499DE
:1046F00001EBC10100EB8101CA69086A104408623C
:10470000049888B9FFE70B98049901EBC10100EB0D
:104710008100406A40B9FFE70B99086801F29C42AA
:10472000012107F089F9FFE7FFE70B989DF81010CA
:10473000FFF79CFBFFE79DF814000007002808D551
:10474000FFE70998049900EB41110820C1F8080916
:10475000FFE79DF81400C006002808D5FFE7099878
:10476000049900EB41111020C1F80809FFE79DF8FA
:1047700014004006002808D5FFE70998049900EBCB
:1047800041114020C1F80809FFE79DF81400800797
:10479000002822D5FFE70A98049907F007FD0B9837
:1047A000049901EBC10100EB8100143008900898D6
:1047B000C078012809D1FFE708990020C8700B983C
:1047C0009DF8101000F024FAFFE70998049900EB17
:1047D00041110220C1F80809FFE79DF81400000606
:1047E000002805D5FFE70B98049903F0B3FBFFE71A
:1047F000FFE704980130049006984008069043E7CC
:10480000FFE70B98006807F0A1FDC00F00B3FFE7BA
:104810000999D1F8040820F00100C1F804080B98A8
:1048200090F8CC04012808D1FFE70B98002180F80C
:10483000CC140B98FFF7B0FA03E00B9800F09AFB4A
:10484000FFE70B980168486900F000404861FFE706
:104850000B98006807F07AFD0005002811D5FFE7E6
:104860000998D0F80808C00720B1FFE70B9800F0BE
:104870000DFCFFE70B980168486900F4006048618F
:10488000FFE70B98006807F061FDC004002840F1C5
:104890008680FFE70999D1F8040820F00100C1F8EB
:1048A00004080B980068102107F080FC0020079096
:1048B000FFE707980B990979884231D2FFE70998F9
:1048C000079900EB41114FF67F30C1F808090999AB
:1048D000079A01EB4212D2F8001921F40011C2F834
:1048E00000190999079A01EB4211C1F8080B0998C0
:1048F000079900EB4111D1F8000B20F40010C1F82A
:10490000000B0998079900EB4111D1F8000B40F01A
:104910000060C1F8000BFFE7079801300790C8E777
:104920000999D1F81C0840F00110C1F81C080B9837
:10493000C07B78B1FFE70999D1F8840840F00B00FB
:10494000C1F884080999D1F8440840F00B00C1F877
:1049500044080FE00999D1F8140842F22B021043E1
:10496000C1F814080999D1F8100840F00B00C1F8FB
:104970001008FFE70999D1F8000820F4FE60C1F89B
:1049800000080B9A1068917902F29C4207F054F8E3
:104990000B980168486900F480504861FFE70B9864
:1049A000006807F0D3FC800400281FD5FFE70B98B0
:1049B000006806F063FD0B98006807F035FC0B9962
:1049C000C8710B980068019000F040FE0146019804
:1049D0000B9AD27907F0C0FD0B9800F0AFFA0B9854
:1049E0000168486900F400504861FFE70B980068CF
:1049F00007F0ACFC000700280AD5FFE70B9800F091
:104A0000C3FA0B980168486900F008004861FFE7A5
:104A10000B98006807F09AFC0006002825D5FFE7F0
:104A20000A99886920F08000886101200490FFE7DE
:104A300004980B990979884216D2FFE70B980499DC
:104A400001EBC10100EB810090F85702012806D16B
:104A5000FFE70B989DF81010FFF73AFAFFE7FFE722
:104A6000049801300490E3E7FFE70B98006807F033
:104A70006DFCC00200283CD5FFE701200490FFE751
:104A800004980B99097988422CD2FFE70998049978
:104A900000EB4110D0F8000902900B98049901EB4B
:104AA000C10100EB8100007E012816D1FFE79DF8CF
:104AB0000B000006002810D5FFE70B98049901EBC6
:104AC000C10100EB81010120C8750B989DF8101001
:104AD00041F08001FFF7FCF9FFE7FFE704980130A0
:104AE0000490CDE70B980168486900F48010486194
:104AF000FFE70B98006807F029FC8002002855D5D5
:104B0000FFE701200490FFE704980B990979884298
:104B100045D2FFE70998049900EB4110D0F8000B4B
:104B200002900B98049901EBC10100EB810090F811
:104B3000580201282ED1FFE79DF80B00000600283F
:104B400028D5FFE7029800F480300B99D1F8D414EF
:104B500001F0010188421DD1FFE70B98049901EB98
:104B6000C10100EB8101012081F857020A9988698F
:104B700040F0800088610A9840690006002808D447
:104B8000FFE70999D1F8040840F40070C1F804085F
:104B900005E0FFE7FFE7049801300490B4E70B98C5
:104BA0000168486900F400104861FFE70B9800684D
:104BB00007F0CCFB400000280AD5FFE70B98FFF771
:104BC0004BF90B980168486900F080404861FFE7A5
:104BD0000B98006807F0BAFB4007002815D5FFE7DF
:104BE0000B980068406802909DF808004007002874
:104BF00004D5FFE70B98FFF761F9FFE7029A0B98DE
:104C00000168486810434860FFE7FFE70CB080BDCB
:104C100080B582B001908DF803100198D0F8E004BF
:104C20009DF8031005F0CCFD02B080BD80B582B0C8
:104C300001908DF803100198D0F8E0049DF803105E
:104C400005F0EAFD02B080BD80B58EB00C900C98E6
:104C500020B9FFE701208DF8370012E10C980068B9
:104C60000B900C9890F8950440B9FFE70C99002040
:104C700081F894040C9800F009F9FFE70C990320DF
:104C800081F895040B98B0F1A04F04D1FFE70C997F
:104C900000208871FFE70C98006806F0C3FE0C9BAB
:104CA0001868197C8DF8241059689A68DB68089395
:104CB000079206910699079A089BDDF824C0EE46F4
:104CC000CEF800C006F0F0FB40B1FFE70C990220DF
:104CD00081F8950401208DF83700D2E00C98006827
:104CE000002107F09BFB40B1FFE70C99022081F8FF
:104CF000950401208DF83700C3E000208DF82B00CB
:104D0000FFE79DF82B000C990979884241DAFFE70B
:104D10000C989DF82B1001EBC10100EB81010120E3
:104D200048759DF82B000C9900EBC00201EB820145
:104D300008759DF82B000C9900EBC00201EB820175
:104D4000C8850C989DF82B1001EBC10100EB810187
:104D5000002008760C999DF82B2002EBC20201EB93
:104D60008201C8610C999DF82B2002EBC20201EB75
:104D7000820108620C999DF82B2002EBC20201EB24
:104D800082014862FFE79DF82B0001308DF82B006F
:104D9000B7E700208DF82B00FFE79DF82B000C995A
:104DA000097988423EDAFFE70C989DF82B1001EB59
:104DB000C10100EB8101002081F855029DF82B1004
:104DC0000C9A01EBC10302EB830282F854120C9996
:104DD0009DF82B2002EBC20201EB820181F8580200
:104DE0000C999DF82B2002EBC20201EB8201C1F865
:104DF0005C020C999DF82B2002EBC20201EB8201B0
:104E0000C1F860020C999DF82B2002EBC20201EB65
:104E10008201C1F86402FFE79DF82B0001308DF894
:104E20002B00BAE70C9B1868197C8DF81410596890
:104E30009A68DB680493039202910299039A049B97
:104E4000DDF814C0EE46CEF800C006F09DFC40B17F
:104E5000FFE70C99022081F8950401208DF83700B6
:104E60000FE00C990020019048740C99012081F802
:104E700095040C98006806F071FC01988DF83700D5
:104E8000FFE79DF837000EB080BD000080B58AB006
:104E900009900020089007900690059004900998CA
:104EA0000068B0F1A04F47D1FFE7FFE70020039073
:104EB00043F63000C4F20200016841F001010160D4
:104EC000006800F0010003900398FFE74FF4C05022
:104ED00004900220059000200690032007900A20ED
:104EE00008900020C4F2020004A9FCF7DFFFFFE7EE
:104EF00043F63401C4F20201086840F08000086003
:104F0000FFE70020029043F64400C4F2020001686B
:104F100041F480410160006800F4804002900298F2
:104F2000FFE7FFE74320019000221146FEF712FF42
:104F30000198FEF705FFFFE70AB080BD80B582B09B
:104F4000019001208DF803000198C079022803D058
:104F5000FFE7FCF75DF9FFE70198D0F8E0049DF862
:104F6000031005F057FD0198D0F8E00405F0C8FCE7
:104F700002B080BD80B582B001900198D0F8E00405
:104F800005F00EFD02B080BD80B582B001900198A1
:104F9000D0F8E00405F016FD02B080BD80B584B005
:104FA00002908DF80710FFE7029890F8940401280A
:104FB00004D1FFE702208DF80F0019E002990120CB
:104FC00081F89404FFE7FFE79DF807000299487411
:104FD000029800689DF8071007F090FAFFE7029921
:104FE000002081F89404FFE700208DF80F00FFE710
:104FF0009DF80F0004B080BD80B582B0019001998A
:10500000D1F8E00401F29C4105F02EFD02B080BD14
:1050100080B584B00290029800680190FFE7029882
:1050200090F89404012804D1FFE702208DF80F00C6
:1050300028E00299012081F89404FFE7FFE7019836
:10504000C068400600280BD5FFE70298407B012886
:1050500006D1FFE70199886B40F480308863FFE751
:105060000298006807F05EF80298006806F060FB9E
:10507000FFE70299002081F89404FFE700208DF8F3
:105080000F00FFE79DF80F0004B080BD80B582B02F
:1050900001900198D0F8E00405F068FD01980168DE
:1050A000D1F8000E40F00100C1F8000E0198C07A5E
:1050B00048B1FFE74EF61051CEF20001086840F00B
:1050C00006000860FFE702B080BD000086B00590D2
:1050D000002004900390029001900598012853D17C
:1050E000FFE743F60800C4F20200006800F4000085
:1050F00002900298009058B1FFE70098B0F5000FB9
:105100003ED1FFE748F20000C0F2BB0004903AE055
:1051100043F60400C4F202000068400200280ED5E5
:10512000FFE743F68400C4F20200006800F03F018C
:105130000020C0F27710B0FBF1F003900EE043F6D0
:105140008400C4F20200006800F03F0142F2004017
:10515000C0F2F400B0FBF1F00390FFE7039843F6D0
:105160008401C4F202010A68C2F38812504301901C
:1051700001980968C1F30271B0FBF1F0049002E0FC
:1051800000200490FFE700E0FFE7049806B07047B6
:1051900080B586B0049000200390029004980068C7
:1051A00000F00100012806D0FFE7049800784007CE
:1051B000002850D5FFE76821C4F24721002008608D
:1051C000FDF756F80390FFE743F60000C4F2020033
:1051D000006800F000610020B0EBD16F0CD0FFE759
:1051E000FDF746F80399401A032804D3FFE703208C
:1051F0008DF81700F4E0E7E7049948688A68C96801
:1052000040EA821040EA017043F68401C4F20201D0
:1052100008606821C4F2472101200860FDF728F8E2
:105220000390FFE743F60000C4F20200006800F0BC
:1052300000610020B0EBD16F0CD1FFE7FDF718F84B
:105240000399401A032804D3FFE703208DF81700C1
:10525000C6E0E7E7FFE7049800788007002840F100
:10526000AD80FFE7FFE70020019043F64000C4F265
:105270000200016841F080510160006800F0805038
:1052800001900198FFE747F20001C4F200010868AD
:1052900040F480700860FCF7EBFF0390FFE747F2F3
:1052A0000000C4F200000068C00500280CD4FFE72D
:1052B000FCF7DEFF0399401A032804D3FFE703201D
:1052C0008DF817008CE0EAE743F67000C4F20200A4
:1052D000006800F440700290029800283ED0FFE77A
:1052E00002980499096901F44071884236D0FFE7B9
:1052F00043F67000C4F20200016821F4407102918B
:1053000040F64062C4F24722012111600021116081
:10531000029901600068C007F8B1FFE7FCF7A8FF39
:105320000390FFE743F67000C4F20200006800F04B
:1053300002010020B0EB510F0ED1FFE7FCF798FF00
:105340000399401A41F28931884204D3FFE70320D0
:105350008DF8170044E0E5E7FFE7FFE7FFE7049873
:10536000006900F44070B0F5407F11D1FFE743F6CB
:105370000801C4F20201086820F4F810049A1269C6
:105380004FF6FF43C0F6FF731A401043086008E071
:1053900043F60801C4F20201086820F4F81008601E
:1053A000FFE7049802696FF31F3243F67001C4F2FD
:1053B0000201086810430860FFE7FFE704980078DF
:1053C0000007002808D5FFE70498007D41F2E011AE
:1053D000C4F247210860FFE700208DF81700FFE7BF
:1053E0009DF8170006B080BD80B584B00290019191
:1053F000029820B9FFE701208DF80F0021E1019804
:1054000043F60041C4F20201096801F00701884235
:1054100012D9FFE7019943F60040C4F2020001707F
:10542000006800F007000199884204D0FFE70120DE
:105430008DF80F0005E1FFE702980078800700284B
:105440002AD5FFE7029800784007002809D5FFE732
:1054500043F60801C4F20201086840F4E050086015
:10546000FFE7029800780007002809D5FFE743F618
:105470000801C4F20201086840F460400860FFE7D8
:1054800043F60801C4F20201086820F0F000029A15
:10549000926810430860FFE702980078C007002870
:1054A0006ED0FFE702984068012811D1FFE743F66C
:1054B0000000C4F20200006800F400310020B0EBEC
:1054C000514F04D1FFE701208DF80F00B9E02CE027
:1054D00002984068022805D0FFE702984068032838
:1054E00011D1FFE743F60000C4F20200006800F0AB
:1054F00000710020B0EB516F04D1FFE701208DF85F
:105500000F009EE010E043F60000C4F202000068C5
:1055100000F002010020B0EB510F04D1FFE70120A1
:105520008DF80F008DE0FFE7FFE743F60801C4F2B6
:105530000201086820F00300029A526810430860D4
:10554000FCF796FE0090FFE743F60800C4F2020065
:10555000006800F00C0002994968B0EB810F0ED092
:10556000FFE7FCF785FE0099401A41F28931884235
:1055700004D3FFE703208DF80F0062E0E4E7FFE7C4
:10558000019843F60041C4F20201096801F00701E5
:10559000884212D2FFE7019943F60040C4F20200AC
:1055A0000170006800F007000199884204D0FFE70D
:1055B00001208DF80F0044E0FFE7029800784007D3
:1055C00000280CD5FFE743F60801C4F20201086881
:1055D00020F4E050029AD26810430860FFE7029876
:1055E0000078000700280DD5FFE743F60801C4F254
:1055F0000201086820F46040029A126940EAC20081
:105600000860FFE700F03AF843F60801C4F202012F
:105610000968C9B20A094DF65C11C0F60001895C3F
:10562000C84040F21C01C2F20001086040F2F030B4
:10563000C2F200000068FEF725FB00208DF80F0085
:10564000FFE79DF80F0004B080BD000040F21C0091
:10565000C2F200000068704780B5FFF7F7FF43F61D
:105660000801C4F202010968C1F382224DF66C11EF
:10567000C0F60001895CC84080BD000080B586B0DE
:105680000020059004900390029043F60800C4F2B5
:105690000200006800F00C000146019140B1FFE7F4
:1056A000019804280AD0FFE7019808280BD04DE0A4
:1056B00042F20040C0F2F40002904DE00020C0F23F
:1056C0007710029048E043F60400C4F2020001683B
:1056D00001F03F01059100684002002812D5FFE764
:1056E00043F60400C4F202000068C0F388100021F1
:1056F000C0F27711A0FB0101059A0023FAF768FDBB
:10570000049012E043F60400C4F202000068C0F303
:10571000881042F20041C0F2F401A0FB0101059A99
:105720000023FAF755FD0490FFE743F60400C4F2A6
:105730000200006800F44031022000EBD1300390F9
:1057400004980399B0FBF1F0029005E042F20040AA
:10575000C0F2F4000290FFE7029806B080BD00009E
:1057600080B586B00490049820B9FFE701208DF839
:10577000170050E304980078C007002800F0A580C7
:10578000FFE743F60800C4F20200006800F00C00D6
:10579000042813D0FFE743F60800C4F202000068B3
:1057A00000F00C0008281ED1FFE743F60400C4F205
:1057B000020000684002002815D5FFE743F600000C
:1057C000C4F20200006800F400310020B0EB514F39
:1057D00008D0FFE70498406820B9FFE701208DF862
:1057E000170018E370E0FFE704984068B0F5803FC9
:1057F00009D1FFE743F60001C4F20201086840F452
:105800008030086020E004984068B0F5A02F0DD1EA
:10581000FFE743F60001C4F20201086840F480206B
:105820000860086840F4803008600CE043F600012E
:10583000C4F20201086820F480300860086820F48F
:1058400080200860FFE7FFE7FFE704984068E8B1C1
:10585000FFE7FCF70DFD0390FFE743F60000C4F2FD
:105860000200006800F400310020B0EB514F0CD171
:10587000FFE7FCF7FDFC0399401A652804D3FFE716
:1058800003208DF81700C6E2E7E71CE0FCF7F0FC08
:105890000390FFE743F60000C4F20200006800F442
:1058A00000310020B0EB514F0CD0FFE7FCF7E0FCDB
:1058B0000399401A652804D3FFE703208DF81700E9
:1058C000A9E2E7E7FFE7FFE7FFE704980078800732
:1058D000002840F19680FFE743F60800C4F202007A
:1058E000006810F00C0F13D0FFE743F60800C4F275
:1058F0000200006800F00C0008282CD1FFE743F6F6
:105900000400C4F2020000684002002823D4FFE72C
:1059100043F60000C4F20200006800F0020100201B
:10592000B0EB510F09D0FFE70498C068012804D0FC
:10593000FFE701208DF817006DE243F60001C4F285
:105940000201086820F0F800049A126940EAC200D7
:105950000860FFE754E00498C06870B3FFE70021D7
:10596000C4F2472101200860FCF782FC0390FFE7A6
:1059700043F60000C4F20200006800F002010020BB
:10598000B0EB510F0CD1FFE7FCF772FC0399401A02
:10599000032804D3FFE703208DF817003BE2E7E775
:1059A00043F60001C4F20201086820F0F800049AEE
:1059B000126940EAC200086021E00021C4F24721D8
:1059C00000200860FCF754FC0390FFE743F600005A
:1059D000C4F20200006800F002010020B0EB510F99
:1059E0000CD0FFE7FCF744FC0399401A032804D3CA
:1059F000FFE703208DF817000DE2E7E7FFE7FFE779
:105A0000FFE704980078000700284BD5FFE70498CB
:105A1000406918B3FFE740F68061C4F247210120D6
:105A20000860FCF725FC0390FFE743F67400C4F21E
:105A30000200006800F002010020B0EB510F0CD111
:105A4000FFE7FCF715FC0399401A032804D3FFE78E
:105A500003208DF81700DEE1E7E722E040F68061E1
:105A6000C4F2472100200860FCF702FC0390FFE726
:105A700043F67400C4F20200006800F00201002046
:105A8000B0EB510F0CD0FFE7FCF7F2FB0399401A83
:105A9000032804D3FFE703208DF81700BBE1E7E7F5
:105AA000FFE7FFE7049800784007002840F1CE8028
:105AB000FFE700208DF8070043F64000C4F2020023
:105AC0000068C000002815D4FFE7FFE70020009021
:105AD00043F64000C4F20200016841F080510160C9
